{
  "contractName": "ERC721Token",
  "abi": [
    {
      "constant": true,
      "inputs": [
        {
          "name": "_interfaceId",
          "type": "bytes4"
        }
      ],
      "name": "supportsInterface",
      "outputs": [
        {
          "name": "",
          "type": "bool"
        }
      ],
      "payable": false,
      "stateMutability": "view",
      "type": "function"
    },
    {
      "constant": true,
      "inputs": [
        {
          "name": "_tokenId",
          "type": "uint256"
        }
      ],
      "name": "getApproved",
      "outputs": [
        {
          "name": "",
          "type": "address"
        }
      ],
      "payable": false,
      "stateMutability": "view",
      "type": "function"
    },
    {
      "constant": false,
      "inputs": [
        {
          "name": "_to",
          "type": "address"
        },
        {
          "name": "_tokenId",
          "type": "uint256"
        }
      ],
      "name": "approve",
      "outputs": [],
      "payable": false,
      "stateMutability": "nonpayable",
      "type": "function"
    },
    {
      "constant": false,
      "inputs": [
        {
          "name": "_admin",
          "type": "address"
        }
      ],
      "name": "removeAdmin",
      "outputs": [],
      "payable": false,
      "stateMutability": "nonpayable",
      "type": "function"
    },
    {
      "constant": true,
      "inputs": [],
      "name": "InterfaceId_ERC165",
      "outputs": [
        {
          "name": "",
          "type": "bytes4"
        }
      ],
      "payable": false,
      "stateMutability": "view",
      "type": "function"
    },
    {
      "constant": false,
      "inputs": [
        {
          "name": "_from",
          "type": "address"
        },
        {
          "name": "_to",
          "type": "address"
        },
        {
          "name": "_tokenId",
          "type": "uint256"
        }
      ],
      "name": "transferFrom",
      "outputs": [],
      "payable": false,
      "stateMutability": "nonpayable",
      "type": "function"
    },
    {
      "constant": false,
      "inputs": [],
      "name": "unpause",
      "outputs": [],
      "payable": false,
      "stateMutability": "nonpayable",
      "type": "function"
    },
    {
      "constant": false,
      "inputs": [
        {
          "name": "_from",
          "type": "address"
        },
        {
          "name": "_to",
          "type": "address"
        },
        {
          "name": "_tokenId",
          "type": "uint256"
        }
      ],
      "name": "safeTransferFrom",
      "outputs": [],
      "payable": false,
      "stateMutability": "nonpayable",
      "type": "function"
    },
    {
      "constant": true,
      "inputs": [
        {
          "name": "",
          "type": "address"
        }
      ],
      "name": "admins",
      "outputs": [
        {
          "name": "",
          "type": "bool"
        }
      ],
      "payable": false,
      "stateMutability": "view",
      "type": "function"
    },
    {
      "constant": true,
      "inputs": [
        {
          "name": "_tokenId",
          "type": "uint256"
        }
      ],
      "name": "exists",
      "outputs": [
        {
          "name": "",
          "type": "bool"
        }
      ],
      "payable": false,
      "stateMutability": "view",
      "type": "function"
    },
    {
      "constant": true,
      "inputs": [],
      "name": "paused",
      "outputs": [
        {
          "name": "",
          "type": "bool"
        }
      ],
      "payable": false,
      "stateMutability": "view",
      "type": "function"
    },
    {
      "constant": true,
      "inputs": [
        {
          "name": "_tokenId",
          "type": "uint256"
        }
      ],
      "name": "ownerOf",
      "outputs": [
        {
          "name": "",
          "type": "address"
        }
      ],
      "payable": false,
      "stateMutability": "view",
      "type": "function"
    },
    {
      "constant": false,
      "inputs": [
        {
          "name": "_admin",
          "type": "address"
        }
      ],
      "name": "addAdmin",
      "outputs": [],
      "payable": false,
      "stateMutability": "nonpayable",
      "type": "function"
    },
    {
      "constant": true,
      "inputs": [
        {
          "name": "_owner",
          "type": "address"
        }
      ],
      "name": "balanceOf",
      "outputs": [
        {
          "name": "",
          "type": "uint256"
        }
      ],
      "payable": false,
      "stateMutability": "view",
      "type": "function"
    },
    {
      "constant": false,
      "inputs": [],
      "name": "acceptOwnership",
      "outputs": [],
      "payable": false,
      "stateMutability": "nonpayable",
      "type": "function"
    },
    {
      "constant": false,
      "inputs": [],
      "name": "pause",
      "outputs": [],
      "payable": false,
      "stateMutability": "nonpayable",
      "type": "function"
    },
    {
      "constant": true,
      "inputs": [],
      "name": "owner",
      "outputs": [
        {
          "name": "",
          "type": "address"
        }
      ],
      "payable": false,
      "stateMutability": "view",
      "type": "function"
    },
    {
      "constant": false,
      "inputs": [
        {
          "name": "_to",
          "type": "address"
        },
        {
          "name": "_approved",
          "type": "bool"
        }
      ],
      "name": "setApprovalForAll",
      "outputs": [],
      "payable": false,
      "stateMutability": "nonpayable",
      "type": "function"
    },
    {
      "constant": false,
      "inputs": [
        {
          "name": "_from",
          "type": "address"
        },
        {
          "name": "_to",
          "type": "address"
        },
        {
          "name": "_tokenId",
          "type": "uint256"
        },
        {
          "name": "_data",
          "type": "bytes"
        }
      ],
      "name": "safeTransferFrom",
      "outputs": [],
      "payable": false,
      "stateMutability": "nonpayable",
      "type": "function"
    },
    {
      "constant": true,
      "inputs": [],
      "name": "newOwner",
      "outputs": [
        {
          "name": "",
          "type": "address"
        }
      ],
      "payable": false,
      "stateMutability": "view",
      "type": "function"
    },
    {
      "constant": true,
      "inputs": [
        {
          "name": "_owner",
          "type": "address"
        },
        {
          "name": "_operator",
          "type": "address"
        }
      ],
      "name": "isApprovedForAll",
      "outputs": [
        {
          "name": "",
          "type": "bool"
        }
      ],
      "payable": false,
      "stateMutability": "view",
      "type": "function"
    },
    {
      "constant": false,
      "inputs": [
        {
          "name": "_newOwner",
          "type": "address"
        }
      ],
      "name": "transferOwnership",
      "outputs": [],
      "payable": false,
      "stateMutability": "nonpayable",
      "type": "function"
    },
    {
      "inputs": [
        {
          "name": "_name",
          "type": "string"
        },
        {
          "name": "_symbol",
          "type": "string"
        }
      ],
      "payable": false,
      "stateMutability": "nonpayable",
      "type": "constructor"
    },
    {
      "anonymous": false,
      "inputs": [],
      "name": "Pause",
      "type": "event"
    },
    {
      "anonymous": false,
      "inputs": [],
      "name": "Unpause",
      "type": "event"
    },
    {
      "anonymous": false,
      "inputs": [
        {
          "indexed": true,
          "name": "_from",
          "type": "address"
        },
        {
          "indexed": true,
          "name": "_to",
          "type": "address"
        }
      ],
      "name": "OwnershipTransferred",
      "type": "event"
    },
    {
      "anonymous": false,
      "inputs": [
        {
          "indexed": true,
          "name": "_from",
          "type": "address"
        },
        {
          "indexed": true,
          "name": "_to",
          "type": "address"
        },
        {
          "indexed": true,
          "name": "_tokenId",
          "type": "uint256"
        }
      ],
      "name": "Transfer",
      "type": "event"
    },
    {
      "anonymous": false,
      "inputs": [
        {
          "indexed": true,
          "name": "_owner",
          "type": "address"
        },
        {
          "indexed": true,
          "name": "_approved",
          "type": "address"
        },
        {
          "indexed": true,
          "name": "_tokenId",
          "type": "uint256"
        }
      ],
      "name": "Approval",
      "type": "event"
    },
    {
      "anonymous": false,
      "inputs": [
        {
          "indexed": true,
          "name": "_owner",
          "type": "address"
        },
        {
          "indexed": true,
          "name": "_operator",
          "type": "address"
        },
        {
          "indexed": false,
          "name": "_approved",
          "type": "bool"
        }
      ],
      "name": "ApprovalForAll",
      "type": "event"
    },
    {
      "constant": true,
      "inputs": [],
      "name": "name",
      "outputs": [
        {
          "name": "",
          "type": "string"
        }
      ],
      "payable": false,
      "stateMutability": "view",
      "type": "function"
    },
    {
      "constant": true,
      "inputs": [],
      "name": "symbol",
      "outputs": [
        {
          "name": "",
          "type": "string"
        }
      ],
      "payable": false,
      "stateMutability": "view",
      "type": "function"
    },
    {
      "constant": true,
      "inputs": [
        {
          "name": "_tokenId",
          "type": "uint256"
        }
      ],
      "name": "tokenURI",
      "outputs": [
        {
          "name": "",
          "type": "string"
        }
      ],
      "payable": false,
      "stateMutability": "view",
      "type": "function"
    },
    {
      "constant": true,
      "inputs": [
        {
          "name": "_owner",
          "type": "address"
        },
        {
          "name": "_index",
          "type": "uint256"
        }
      ],
      "name": "tokenOfOwnerByIndex",
      "outputs": [
        {
          "name": "",
          "type": "uint256"
        }
      ],
      "payable": false,
      "stateMutability": "view",
      "type": "function"
    },
    {
      "constant": true,
      "inputs": [],
      "name": "totalSupply",
      "outputs": [
        {
          "name": "",
          "type": "uint256"
        }
      ],
      "payable": false,
      "stateMutability": "view",
      "type": "function"
    },
    {
      "constant": true,
      "inputs": [
        {
          "name": "_index",
          "type": "uint256"
        }
      ],
      "name": "tokenByIndex",
      "outputs": [
        {
          "name": "",
          "type": "uint256"
        }
      ],
      "payable": false,
      "stateMutability": "view",
      "type": "function"
    }
  ],
  "bytecode": "0x60806040526000600460006101000a81548160ff0219169083151502179055503480156200002c57600080fd5b506040516200285c3803806200285c8339810180604052810190808051820192919060200180518201929190505050620000986301ffc9a77c010000000000000000000000000000000000000000000000000000000002620001c6640100000000026401000000009004565b620000d56380ac58cd7c010000000000000000000000000000000000000000000000000000000002620001c6640100000000026401000000009004565b62000112634f558e797c010000000000000000000000000000000000000000000000000000000002620001c6640100000000026401000000009004565b81600990805190602001906200012a92919062000284565b5080600a90805190602001906200014392919062000284565b506200018163780e9d637c010000000000000000000000000000000000000000000000000000000002620001c6640100000000026401000000009004565b620001be635b5e139f7c010000000000000000000000000000000000000000000000000000000002620001c6640100000000026401000000009004565b505062000333565b63ffffffff7c010000000000000000000000000000000000000000000000000000000002817bffffffffffffffffffffffffffffffffffffffffffffffffffffffff1916141515156200021857600080fd5b6001600080837bffffffffffffffffffffffffffffffffffffffffffffffffffffffff19167bffffffffffffffffffffffffffffffffffffffffffffffffffffffff1916815260200190815260200160002060006101000a81548160ff02191690831515021790555050565b828054600181600116156101000203166002900490600052602060002090601f016020900481019282601f10620002c757805160ff1916838001178555620002f8565b82800160010185558215620002f8579182015b82811115620002f7578251825591602001919060010190620002da565b5b5090506200030791906200030b565b5090565b6200033091905b808211156200032c57600081600090555060010162000312565b5090565b90565b61251980620003436000396000f30060806040526004361061016a576000357c0100000000000000000000000000000000000000000000000000000000900463ffffffff16806301ffc9a71461016f57806306fdde03146101d3578063081812fc14610263578063095ea7b3146102d05780631785f53c1461031d57806318160ddd1461036057806319fa8f501461038b57806323b872dd146103f45780632f745c59146104615780633f4ba83a146104c257806342842e0e146104d9578063429b62e5146105465780634f558e79146105a15780634f6ccce7146105e65780635c975abb146106275780636352211e1461065657806370480275146106c357806370a082311461070657806379ba50971461075d5780638456cb59146107745780638da5cb5b1461078b57806395d89b41146107e2578063a22cb46514610872578063b88d4fde146108c1578063c87b56dd14610974578063d4ee1d9014610a1a578063e985e9c514610a71578063f2fde38b14610aec575b600080fd5b34801561017b57600080fd5b506101b960048036038101908080357bffffffffffffffffffffffffffffffffffffffffffffffffffffffff19169060200190929190505050610b2f565b604051808215151515815260200191505060405180910390f35b3480156101df57600080fd5b506101e8610b96565b6040518080602001828103825283818151815260200191508051906020019080838360005b8381101561022857808201518184015260208101905061020d565b50505050905090810190601f1680156102555780820380516001836020036101000a031916815260200191505b509250505060405180910390f35b34801561026f57600080fd5b5061028e60048036038101908080359060200190929190505050610c38565b604051808273ffffffffffffffffffffffffffffffffffffffff1673ffffffffffffffffffffffffffffffffffffffff16815260200191505060405180910390f35b3480156102dc57600080fd5b5061031b600480360381019080803573ffffffffffffffffffffffffffffffffffffffff16906020019092919080359060200190929190505050610c75565b005b34801561032957600080fd5b5061035e600480360381019080803573ffffffffffffffffffffffffffffffffffffffff169060200190929190505050610dd6565b005b34801561036c57600080fd5b50610375610e84565b6040518082815260200191505060405180910390f35b34801561039757600080fd5b506103a0610e91565b60405180827bffffffffffffffffffffffffffffffffffffffffffffffffffffffff19167bffffffffffffffffffffffffffffffffffffffffffffffffffffffff1916815260200191505060405180910390f35b34801561040057600080fd5b5061045f600480360381019080803573ffffffffffffffffffffffffffffffffffffffff169060200190929190803573ffffffffffffffffffffffffffffffffffffffff16906020019092919080359060200190929190505050610eb8565b005b34801561046d57600080fd5b506104ac600480360381019080803573ffffffffffffffffffffffffffffffffffffffff16906020019092919080359060200190929190505050610fe1565b6040518082815260200191505060405180910390f35b3480156104ce57600080fd5b506104d7611058565b005b3480156104e557600080fd5b50610544600480360381019080803573ffffffffffffffffffffffffffffffffffffffff169060200190929190803573ffffffffffffffffffffffffffffffffffffffff16906020019092919080359060200190929190505050611114565b005b34801561055257600080fd5b50610587600480360381019080803573ffffffffffffffffffffffffffffffffffffffff169060200190929190505050611168565b604051808215151515815260200191505060405180910390f35b3480156105ad57600080fd5b506105cc60048036038101908080359060200190929190505050611188565b604051808215151515815260200191505060405180910390f35b3480156105f257600080fd5b50610611600480360381019080803590602001909291905050506111fa565b6040518082815260200191505060405180910390f35b34801561063357600080fd5b5061063c611232565b604051808215151515815260200191505060405180910390f35b34801561066257600080fd5b5061068160048036038101908080359060200190929190505050611245565b604051808273ffffffffffffffffffffffffffffffffffffffff1673ffffffffffffffffffffffffffffffffffffffff16815260200191505060405180910390f35b3480156106cf57600080fd5b50610704600480360381019080803573ffffffffffffffffffffffffffffffffffffffff1690602001909291905050506112c3565b005b34801561071257600080fd5b50610747600480360381019080803573ffffffffffffffffffffffffffffffffffffffff16906020019092919050505061137a565b6040518082815260200191505060405180910390f35b34801561076957600080fd5b506107726113fe565b005b34801561078057600080fd5b5061078961159f565b005b34801561079757600080fd5b506107a061165c565b604051808273ffffffffffffffffffffffffffffffffffffffff1673ffffffffffffffffffffffffffffffffffffffff16815260200191505060405180910390f35b3480156107ee57600080fd5b506107f7611682565b6040518080602001828103825283818151815260200191508051906020019080838360005b8381101561083757808201518184015260208101905061081c565b50505050905090810190601f1680156108645780820380516001836020036101000a031916815260200191505b509250505060405180910390f35b34801561087e57600080fd5b506108bf600480360381019080803573ffffffffffffffffffffffffffffffffffffffff169060200190929190803515159060200190929190505050611724565b005b3480156108cd57600080fd5b50610972600480360381019080803573ffffffffffffffffffffffffffffffffffffffff169060200190929190803573ffffffffffffffffffffffffffffffffffffffff16906020019092919080359060200190929190803590602001908201803590602001908080601f016020809104026020016040519081016040528093929190818152602001838380828437820191505050505050919291929050505061187c565b005b34801561098057600080fd5b5061099f600480360381019080803590602001909291905050506118d7565b6040518080602001828103825283818151815260200191508051906020019080838360005b838110156109df5780820151818401526020810190506109c4565b50505050905090810190601f168015610a0c5780820380516001836020036101000a031916815260200191505b509250505060405180910390f35b348015610a2657600080fd5b50610a2f6119a0565b604051808273ffffffffffffffffffffffffffffffffffffffff1673ffffffffffffffffffffffffffffffffffffffff16815260200191505060405180910390f35b348015610a7d57600080fd5b50610ad2600480360381019080803573ffffffffffffffffffffffffffffffffffffffff169060200190929190803573ffffffffffffffffffffffffffffffffffffffff1690602001909291905050506119c6565b604051808215151515815260200191505060405180910390f35b348015610af857600080fd5b50610b2d600480360381019080803573ffffffffffffffffffffffffffffffffffffffff169060200190929190505050611a5a565b005b6000806000837bffffffffffffffffffffffffffffffffffffffffffffffffffffffff19167bffffffffffffffffffffffffffffffffffffffffffffffffffffffff1916815260200190815260200160002060009054906101000a900460ff169050919050565b606060098054600181600116156101000203166002900480601f016020809104026020016040519081016040528092919081815260200182805460018160011615610100020316600290048015610c2e5780601f10610c0357610100808354040283529160200191610c2e565b820191906000526020600020905b815481529060010190602001808311610c1157829003601f168201915b5050505050905090565b60006006600083815260200190815260200160002060009054906101000a900473ffffffffffffffffffffffffffffffffffffffff169050919050565b6000600460009054906101000a900460ff16151515610c9357600080fd5b610c9c82611245565b90508073ffffffffffffffffffffffffffffffffffffffff168373ffffffffffffffffffffffffffffffffffffffff1614151515610cd957600080fd5b8073ffffffffffffffffffffffffffffffffffffffff163373ffffffffffffffffffffffffffffffffffffffff161480610d195750610d1881336119c6565b5b1515610d2457600080fd5b826006600084815260200190815260200160002060006101000a81548173ffffffffffffffffffffffffffffffffffffffff021916908373ffffffffffffffffffffffffffffffffffffffff160217905550818373ffffffffffffffffffffffffffffffffffffffff168273ffffffffffffffffffffffffffffffffffffffff167f8c5be1e5ebec7d5bd14f71427d1e84f3dd0314c0f7b2291e5b200ac8c7c3b92560405160405180910390a4505050565b600160009054906101000a900473ffffffffffffffffffffffffffffffffffffffff1673ffffffffffffffffffffffffffffffffffffffff163373ffffffffffffffffffffffffffffffffffffffff16141515610e3257600080fd5b600360008273ffffffffffffffffffffffffffffffffffffffff1673ffffffffffffffffffffffffffffffffffffffff16815260200190815260200160002060006101000a81549060ff021916905550565b6000600d80549050905090565b6301ffc9a77c01000000000000000000000000000000000000000000000000000000000281565b600460009054906101000a900460ff16151515610ed457600080fd5b80610edf3382611afa565b1515610eea57600080fd5b600073ffffffffffffffffffffffffffffffffffffffff168473ffffffffffffffffffffffffffffffffffffffff1614151515610f2657600080fd5b600073ffffffffffffffffffffffffffffffffffffffff168373ffffffffffffffffffffffffffffffffffffffff1614151515610f6257600080fd5b610f6c8483611b8f565b610f768483611cee565b610f808383611f06565b818373ffffffffffffffffffffffffffffffffffffffff168573ffffffffffffffffffffffffffffffffffffffff167fddf252ad1be2c89b69c2b068fc378daa952ba7f163c4a11628f55a4df523b3ef60405160405180910390a450505050565b6000610fec8361137a565b82101515610ff957600080fd5b600b60008473ffffffffffffffffffffffffffffffffffffffff1673ffffffffffffffffffffffffffffffffffffffff1681526020019081526020016000208281548110151561104557fe5b9060005260206000200154905092915050565b600360003373ffffffffffffffffffffffffffffffffffffffff1673ffffffffffffffffffffffffffffffffffffffff16815260200190815260200160002060009054906101000a900460ff1615156110b057600080fd5b600460009054906101000a900460ff1615156110cb57600080fd5b6000600460006101000a81548160ff0219169083151502179055507f7805862f689e2f13df9f062ff482ad3ad112aca9e0847911ed832e158c525b3360405160405180910390a1565b600460009054906101000a900460ff1615151561113057600080fd5b8061113b3382611afa565b151561114657600080fd5b611162848484602060405190810160405280600081525061187c565b50505050565b60036020528060005260406000206000915054906101000a900460ff1681565b6000806005600084815260200190815260200160002060009054906101000a900473ffffffffffffffffffffffffffffffffffffffff169050600073ffffffffffffffffffffffffffffffffffffffff168173ffffffffffffffffffffffffffffffffffffffff161415915050919050565b6000611204610e84565b8210151561121157600080fd5b600d8281548110151561122057fe5b90600052602060002001549050919050565b600460009054906101000a900460ff1681565b6000806005600084815260200190815260200160002060009054906101000a900473ffffffffffffffffffffffffffffffffffffffff169050600073ffffffffffffffffffffffffffffffffffffffff168173ffffffffffffffffffffffffffffffffffffffff16141515156112ba57600080fd5b80915050919050565b600160009054906101000a900473ffffffffffffffffffffffffffffffffffffffff1673ffffffffffffffffffffffffffffffffffffffff163373ffffffffffffffffffffffffffffffffffffffff1614151561131f57600080fd5b6001600360008373ffffffffffffffffffffffffffffffffffffffff1673ffffffffffffffffffffffffffffffffffffffff16815260200190815260200160002060006101000a81548160ff02191690831515021790555050565b60008073ffffffffffffffffffffffffffffffffffffffff168273ffffffffffffffffffffffffffffffffffffffff16141515156113b757600080fd5b600760008373ffffffffffffffffffffffffffffffffffffffff1673ffffffffffffffffffffffffffffffffffffffff168152602001908152602001600020549050919050565b600260009054906101000a900473ffffffffffffffffffffffffffffffffffffffff1673ffffffffffffffffffffffffffffffffffffffff163373ffffffffffffffffffffffffffffffffffffffff1614151561145a57600080fd5b600260009054906101000a900473ffffffffffffffffffffffffffffffffffffffff1673ffffffffffffffffffffffffffffffffffffffff16600160009054906101000a900473ffffffffffffffffffffffffffffffffffffffff1673ffffffffffffffffffffffffffffffffffffffff167f8be0079c531659141344cd1fd0a4f28419497f9722a3daafe3b4186f6b6457e060405160405180910390a3600260009054906101000a900473ffffffffffffffffffffffffffffffffffffffff16600160006101000a81548173ffffffffffffffffffffffffffffffffffffffff021916908373ffffffffffffffffffffffffffffffffffffffff1602179055506000600260006101000a81548173ffffffffffffffffffffffffffffffffffffffff021916908373ffffffffffffffffffffffffffffffffffffffff160217905550565b600360003373ffffffffffffffffffffffffffffffffffffffff1673ffffffffffffffffffffffffffffffffffffffff16815260200190815260200160002060009054906101000a900460ff1615156115f757600080fd5b600460009054906101000a900460ff1615151561161357600080fd5b6001600460006101000a81548160ff0219169083151502179055507f6985a02210a168e66602d3235cb6db0e70f92b3ba4d376a33c0f3d9434bff62560405160405180910390a1565b600160009054906101000a900473ffffffffffffffffffffffffffffffffffffffff1681565b6060600a8054600181600116156101000203166002900480601f01602080910402602001604051908101604052809291908181526020018280546001816001161561010002031660029004801561171a5780601f106116ef5761010080835404028352916020019161171a565b820191906000526020600020905b8154815290600101906020018083116116fd57829003601f168201915b5050505050905090565b600460009054906101000a900460ff1615151561174057600080fd5b3373ffffffffffffffffffffffffffffffffffffffff168273ffffffffffffffffffffffffffffffffffffffff161415151561177b57600080fd5b80600860003373ffffffffffffffffffffffffffffffffffffffff1673ffffffffffffffffffffffffffffffffffffffff16815260200190815260200160002060008473ffffffffffffffffffffffffffffffffffffffff1673ffffffffffffffffffffffffffffffffffffffff16815260200190815260200160002060006101000a81548160ff0219169083151502179055508173ffffffffffffffffffffffffffffffffffffffff163373ffffffffffffffffffffffffffffffffffffffff167f17307eab39ab6107e8899845ad3d59bd9653f200f220920489ca2b5937696c3183604051808215151515815260200191505060405180910390a35050565b600460009054906101000a900460ff1615151561189857600080fd5b816118a33382611afa565b15156118ae57600080fd5b6118b9858585610eb8565b6118c585858585611fdd565b15156118d057600080fd5b5050505050565b60606118e282611188565b15156118ed57600080fd5b600f60008381526020019081526020016000208054600181600116156101000203166002900480601f0160208091040260200160405190810160405280929190818152602001828054600181600116156101000203166002900480156119945780601f1061196957610100808354040283529160200191611994565b820191906000526020600020905b81548152906001019060200180831161197757829003601f168201915b50505050509050919050565b600260009054906101000a900473ffffffffffffffffffffffffffffffffffffffff1681565b6000600860008473ffffffffffffffffffffffffffffffffffffffff1673ffffffffffffffffffffffffffffffffffffffff16815260200190815260200160002060008373ffffffffffffffffffffffffffffffffffffffff1673ffffffffffffffffffffffffffffffffffffffff16815260200190815260200160002060009054906101000a900460ff16905092915050565b600160009054906101000a900473ffffffffffffffffffffffffffffffffffffffff1673ffffffffffffffffffffffffffffffffffffffff163373ffffffffffffffffffffffffffffffffffffffff16141515611ab657600080fd5b80600260006101000a81548173ffffffffffffffffffffffffffffffffffffffff021916908373ffffffffffffffffffffffffffffffffffffffff16021790555050565b600080611b0683611245565b90508073ffffffffffffffffffffffffffffffffffffffff168473ffffffffffffffffffffffffffffffffffffffff161480611b7557508373ffffffffffffffffffffffffffffffffffffffff16611b5d84610c38565b73ffffffffffffffffffffffffffffffffffffffff16145b80611b865750611b8581856119c6565b5b91505092915050565b8173ffffffffffffffffffffffffffffffffffffffff16611baf82611245565b73ffffffffffffffffffffffffffffffffffffffff16141515611bd157600080fd5b600073ffffffffffffffffffffffffffffffffffffffff166006600083815260200190815260200160002060009054906101000a900473ffffffffffffffffffffffffffffffffffffffff1673ffffffffffffffffffffffffffffffffffffffff16141515611cea5760006006600083815260200190815260200160002060006101000a81548173ffffffffffffffffffffffffffffffffffffffff021916908373ffffffffffffffffffffffffffffffffffffffff16021790555080600073ffffffffffffffffffffffffffffffffffffffff168373ffffffffffffffffffffffffffffffffffffffff167f8c5be1e5ebec7d5bd14f71427d1e84f3dd0314c0f7b2291e5b200ac8c7c3b92560405160405180910390a45b5050565b6000806000611cfd85856121cb565b600c6000858152602001908152602001600020549250611d696001600b60008873ffffffffffffffffffffffffffffffffffffffff1673ffffffffffffffffffffffffffffffffffffffff168152602001908152602001600020805490506122fa90919063ffffffff16565b9150600b60008673ffffffffffffffffffffffffffffffffffffffff1673ffffffffffffffffffffffffffffffffffffffff16815260200190815260200160002082815481101515611db757fe5b9060005260206000200154905080600b60008773ffffffffffffffffffffffffffffffffffffffff1673ffffffffffffffffffffffffffffffffffffffff16815260200190815260200160002084815481101515611e1157fe5b90600052602060002001819055506000600b60008773ffffffffffffffffffffffffffffffffffffffff1673ffffffffffffffffffffffffffffffffffffffff16815260200190815260200160002083815481101515611e6d57fe5b9060005260206000200181905550600b60008673ffffffffffffffffffffffffffffffffffffffff1673ffffffffffffffffffffffffffffffffffffffff168152602001908152602001600020805480919060019003611ecd919061249c565b506000600c60008681526020019081526020016000208190555082600c6000838152602001908152602001600020819055505050505050565b6000611f128383612313565b600b60008473ffffffffffffffffffffffffffffffffffffffff1673ffffffffffffffffffffffffffffffffffffffff168152602001908152602001600020805490509050600b60008473ffffffffffffffffffffffffffffffffffffffff1673ffffffffffffffffffffffffffffffffffffffff16815260200190815260200160002082908060018154018082558091505090600182039060005260206000200160009091929091909150555080600c600084815260200190815260200160002081905550505050565b600080611fff8573ffffffffffffffffffffffffffffffffffffffff1661246d565b151561200e57600191506121c2565b8473ffffffffffffffffffffffffffffffffffffffff1663f0b9e5ba8786866040518463ffffffff167c0100000000000000000000000000000000000000000000000000000000028152600401808473ffffffffffffffffffffffffffffffffffffffff1673ffffffffffffffffffffffffffffffffffffffff16815260200183815260200180602001828103825283818151815260200191508051906020019080838360005b838110156120d05780820151818401526020810190506120b5565b50505050905090810190601f1680156120fd5780820380516001836020036101000a031916815260200191505b50945050505050602060405180830381600087803b15801561211e57600080fd5b505af1158015612132573d6000803e3d6000fd5b505050506040513d602081101561214857600080fd5b8101908080519060200190929190505050905063f0b9e5ba7c0100000000000000000000000000000000000000000000000000000000027bffffffffffffffffffffffffffffffffffffffffffffffffffffffff1916817bffffffffffffffffffffffffffffffffffffffffffffffffffffffff19161491505b50949350505050565b8173ffffffffffffffffffffffffffffffffffffffff166121eb82611245565b73ffffffffffffffffffffffffffffffffffffffff1614151561220d57600080fd5b6122606001600760008573ffffffffffffffffffffffffffffffffffffffff1673ffffffffffffffffffffffffffffffffffffffff168152602001908152602001600020546122fa90919063ffffffff16565b600760008473ffffffffffffffffffffffffffffffffffffffff1673ffffffffffffffffffffffffffffffffffffffff1681526020019081526020016000208190555060006005600083815260200190815260200160002060006101000a81548173ffffffffffffffffffffffffffffffffffffffff021916908373ffffffffffffffffffffffffffffffffffffffff1602179055505050565b600082821115151561230857fe5b818303905092915050565b600073ffffffffffffffffffffffffffffffffffffffff166005600083815260200190815260200160002060009054906101000a900473ffffffffffffffffffffffffffffffffffffffff1673ffffffffffffffffffffffffffffffffffffffff1614151561238157600080fd5b816005600083815260200190815260200160002060006101000a81548173ffffffffffffffffffffffffffffffffffffffff021916908373ffffffffffffffffffffffffffffffffffffffff1602179055506124266001600760008573ffffffffffffffffffffffffffffffffffffffff1673ffffffffffffffffffffffffffffffffffffffff1681526020019081526020016000205461248090919063ffffffff16565b600760008473ffffffffffffffffffffffffffffffffffffffff1673ffffffffffffffffffffffffffffffffffffffff168152602001908152602001600020819055505050565b600080823b905060008111915050919050565b6000818301905082811015151561249357fe5b80905092915050565b8154818355818111156124c3578183600052602060002091820191016124c291906124c8565b5b505050565b6124ea91905b808211156124e65760008160009055506001016124ce565b5090565b905600a165627a7a723058202eafccf2d41af89e238670eab505944c4c339307dd13dd0f1ccdaaa6aea8072b0029",
  "source": "pragma solidity ^0.4.24;\r\n\r\nimport \"./SafeMath.sol\";\r\nimport \"./AddressUtils.sol\";\r\nimport \"./Pausable.sol\";\r\n\r\n/**\r\n * @title ERC165\r\n * @dev https://github.com/ethereum/EIPs/blob/master/EIPS/eip-165.md\r\n */\r\ninterface ERC165 {\r\n\r\n    /**\r\n     * @notice Query if a contract implements an interface\r\n     * @param _interfaceId The interface identifier, as specified in ERC-165\r\n     * @dev Interface identification is specified in ERC-165. This function\r\n     * uses less than 30,000 gas.\r\n     */\r\n    function supportsInterface(bytes4 _interfaceId)\r\n        external\r\n        view\r\n        returns (bool);\r\n}\r\n\r\n/**\r\n * @title  ERC721Basic\r\n * @dev ERC721 Non-Fungible Token Standard basic interface\r\n * @dev see https://github.com/ethereum/EIPs/blob/master/EIPS/eip-721.md\r\n */\r\ncontract ERC721Basic is ERC165 {\r\n    event Transfer(\r\n        address indexed _from,\r\n        address indexed _to,\r\n        uint256 indexed _tokenId\r\n    );\r\n    event Approval(\r\n        address indexed _owner,\r\n        address indexed _approved,\r\n        uint256 indexed _tokenId\r\n    );\r\n    event ApprovalForAll(\r\n        address indexed _owner,\r\n        address indexed _operator,\r\n        bool _approved\r\n    );\r\n\r\n    function balanceOf(address _owner) public view returns (uint256 _balance);\r\n    function ownerOf(uint256 _tokenId) public view returns (address _owner);\r\n    function exists(uint256 _tokenId) public view returns (bool _exists);\r\n\r\n    function approve(address _to, uint256 _tokenId) public;\r\n    function getApproved(uint256 _tokenId)\r\n        public view returns (address _operator);\r\n\r\n    function setApprovalForAll(address _operator, bool _approved) public;\r\n    function isApprovedForAll(address _owner, address _operator)\r\n        public view returns (bool);\r\n\r\n    function transferFrom(address _from, address _to, uint256 _tokenId) public;\r\n    function safeTransferFrom(address _from, address _to, uint256 _tokenId) public;\r\n\r\n    function safeTransferFrom(\r\n        address _from,\r\n        address _to,\r\n        uint256 _tokenId,\r\n        bytes _data\r\n    )\r\n        public;\r\n}\r\n\r\n/**\r\n * @title ERC721Enumerable\r\n * @dev ERC-721 Non-Fungible Token Standard, optional enumeration extension\r\n * @dev See https://github.com/ethereum/EIPs/blob/master/EIPS/eip-721.md\r\n */\r\ncontract ERC721Enumerable is ERC721Basic {\r\n    function totalSupply() public view returns (uint256);\r\n    function tokenOfOwnerByIndex(\r\n        address _owner,\r\n        uint256 _index\r\n    )\r\n        public\r\n        view\r\n        returns (uint256 _tokenId);\r\n\r\n    function tokenByIndex(uint256 _index) public view returns (uint256);\r\n}\r\n\r\n/**\r\n * @title ERC721Metadata\r\n * @dev ERC-721 Non-Fungible Token Standard, optional metadata extension\r\n * @dev See https://github.com/ethereum/EIPs/blob/master/EIPS/eip-721.md\r\n */\r\ncontract ERC721Metadata is ERC721Basic {\r\n    function name() external view returns (string _name);\r\n    function symbol() external view returns (string _symbol);\r\n    function tokenURI(uint256 _tokenId) public view returns (string);\r\n}\r\n\r\n/**\r\n * @title ERC721\r\n * @dev ERC-721 Non-Fungible Token Standard, full implementation interface\r\n * @dev See https://github.com/ethereum/EIPs/blob/master/EIPS/eip-721.md\r\n */\r\ncontract ERC721 is ERC721Basic, ERC721Enumerable, ERC721Metadata {\r\n}\r\n\r\n/**\r\n * @title ERC721Receiver\r\n * @dev ERC721 token receiver interface\r\n * @dev Interface for any contract that wants to support safeTransfers\r\n * from ERC721 asset contracts.\r\n */\r\ncontract ERC721Receiver {\r\n    /**\r\n     * @dev Magic value to be returned upon successful reception of an NFT\r\n     *    Equals to `bytes4(keccak256(\"onERC721Received(address,uint256,bytes)\"))`,\r\n     *    which can be also obtained as `ERC721Receiver(0).onERC721Received.selector`\r\n     */\r\n    bytes4 internal constant ERC721_RECEIVED = 0xf0b9e5ba;\r\n\r\n    /**\r\n     * @notice Handle the receipt of an NFT\r\n     * @dev The ERC721 smart contract calls this function on the recipient\r\n     * after a `safetransfer`. This function MAY throw to revert and reject the\r\n     * transfer. This function MUST use 50,000 gas or less. Return of other\r\n     * than the magic value MUST result in the transaction being reverted.\r\n     * Note: the contract address is always the message sender.\r\n     * @param _from The sending address\r\n     * @param _tokenId The NFT identifier which is being transfered\r\n     * @param _data Additional data with no specified format\r\n     * @return `bytes4(keccak256(\"onERC721Received(address,uint256,bytes)\"))`\r\n     */\r\n    function onERC721Received(\r\n        address _from,\r\n        uint256 _tokenId,\r\n        bytes _data\r\n    )\r\n        public\r\n        returns (bytes4);\r\n}\r\n\r\ncontract ERC721Holder is ERC721Receiver {\r\n    function onERC721Received(address, uint256, bytes) \r\n        public \r\n        returns (bytes4) \r\n    {\r\n        return ERC721_RECEIVED;\r\n    }\r\n}\r\n\r\n/**\r\n * @title SupportsInterfaceWithLookup\r\n * @author Matt Condon (@shrugs)\r\n * @dev Implements ERC165 using a lookup table.\r\n */\r\ncontract SupportsInterfaceWithLookup is ERC165 {\r\n    bytes4 public constant InterfaceId_ERC165 = 0x01ffc9a7;\r\n    /**\r\n     * 0x01ffc9a7 ===\r\n     *     bytes4(keccak256('supportsInterface(bytes4)'))\r\n     */\r\n\r\n    /**\r\n     * @dev a mapping of interface id to whether or not it's supported\r\n     */\r\n    mapping(bytes4 => bool) internal supportedInterfaces;\r\n\r\n    /**\r\n     * @dev A contract implementing SupportsInterfaceWithLookup\r\n     * implement ERC165 itself\r\n     */\r\n    constructor()\r\n        public\r\n    {\r\n        _registerInterface(InterfaceId_ERC165);\r\n    }\r\n\r\n    /**\r\n     * @dev implement supportsInterface(bytes4) using a lookup table\r\n     */\r\n    function supportsInterface(bytes4 _interfaceId)\r\n        external\r\n        view\r\n        returns (bool)\r\n    {\r\n        return supportedInterfaces[_interfaceId];\r\n    }\r\n\r\n    /**\r\n     * @dev private method for registering an interface\r\n     */\r\n    function _registerInterface(bytes4 _interfaceId)\r\n        internal\r\n    {\r\n        require(_interfaceId != 0xffffffff);\r\n        supportedInterfaces[_interfaceId] = true;\r\n    }\r\n}\r\n\r\n\r\n/**\r\n * @title ERC721BasicToken\r\n * @dev ERC721 Non-Fungible Token Standard basic implementation\r\n * @dev see https://github.com/ethereum/EIPs/blob/master/EIPS/eip-721.md\r\n */\r\ncontract ERC721BasicToken is SupportsInterfaceWithLookup, ERC721Basic, Pausable {\r\n\r\n    bytes4 private constant InterfaceId_ERC721 = 0x80ac58cd;\r\n    /*\r\n     * 0x80ac58cd ===\r\n     *     bytes4(keccak256('balanceOf(address)')) ^\r\n     *     bytes4(keccak256('ownerOf(uint256)')) ^\r\n     *     bytes4(keccak256('approve(address,uint256)')) ^\r\n     *     bytes4(keccak256('getApproved(uint256)')) ^\r\n     *     bytes4(keccak256('setApprovalForAll(address,bool)')) ^\r\n     *     bytes4(keccak256('isApprovedForAll(address,address)')) ^\r\n     *     bytes4(keccak256('transferFrom(address,address,uint256)')) ^\r\n     *     bytes4(keccak256('safeTransferFrom(address,address,uint256)')) ^\r\n     *     bytes4(keccak256('safeTransferFrom(address,address,uint256,bytes)'))\r\n     */\r\n\r\n    bytes4 private constant InterfaceId_ERC721Exists = 0x4f558e79;\r\n    /*\r\n     * 0x4f558e79 ===\r\n     *     bytes4(keccak256('exists(uint256)'))\r\n     */\r\n\r\n    using SafeMath for uint256;\r\n    using AddressUtils for address;\r\n\r\n    // Equals to `bytes4(keccak256(\"onERC721Received(address,uint256,bytes)\"))`\r\n    // which can be also obtained as `ERC721Receiver(0).onERC721Received.selector`\r\n    bytes4 private constant ERC721_RECEIVED = 0xf0b9e5ba;\r\n\r\n    // Mapping from token ID to owner\r\n    mapping (uint256 => address) internal tokenOwner;\r\n\r\n    // Mapping from token ID to approved address\r\n    mapping (uint256 => address) internal tokenApprovals;\r\n\r\n    // Mapping from owner to number of owned token\r\n    mapping (address => uint256) internal ownedTokensCount;\r\n\r\n    // Mapping from owner to operator approvals\r\n    mapping (address => mapping (address => bool)) internal operatorApprovals;\r\n\r\n    /**\r\n     * @dev Guarantees msg.sender is owner of the given token\r\n     * @param _tokenId uint256 ID of the token to validate its ownership belongs to msg.sender\r\n     */\r\n    modifier onlyOwnerOf(uint256 _tokenId) {\r\n        require(ownerOf(_tokenId) == msg.sender);\r\n        _;\r\n    }\r\n\r\n    /**\r\n     * @dev Checks msg.sender can transfer a token, by being owner, approved, or operator\r\n     * @param _tokenId uint256 ID of the token to validate\r\n     */\r\n    modifier canTransfer(uint256 _tokenId) {\r\n        require(isApprovedOrOwner(msg.sender, _tokenId));\r\n        _;\r\n    }\r\n\r\n    constructor()\r\n        public\r\n    {\r\n        // register the supported interfaces to conform to ERC721 via ERC165\r\n        _registerInterface(InterfaceId_ERC721);\r\n        _registerInterface(InterfaceId_ERC721Exists);\r\n    }\r\n\r\n    /**\r\n     * @dev Gets the balance of the specified address\r\n     * @param _owner address to query the balance of\r\n     * @return uint256 representing the amount owned by the passed address\r\n     */\r\n    function balanceOf(address _owner) \r\n        public \r\n        view \r\n        returns (uint256) \r\n    {\r\n        require(_owner != address(0));\r\n        return ownedTokensCount[_owner];\r\n    }\r\n\r\n    /**\r\n     * @dev Gets the owner of the specified token ID\r\n     * @param _tokenId uint256 ID of the token to query the owner of\r\n     * @return owner address currently marked as the owner of the given token ID\r\n     */\r\n    function ownerOf(uint256 _tokenId) \r\n        public \r\n        view \r\n        returns (address) \r\n    {\r\n        address owner = tokenOwner[_tokenId];\r\n        require(owner != address(0));\r\n        return owner;\r\n    }\r\n\r\n    /**\r\n     * @dev Returns whether the specified token exists\r\n     * @param _tokenId uint256 ID of the token to query the existence of\r\n     * @return whether the token exists\r\n     */\r\n    function exists(uint256 _tokenId) \r\n        public \r\n        view \r\n        returns (bool) \r\n    {\r\n        address owner = tokenOwner[_tokenId];\r\n        return owner != address(0);\r\n    }\r\n\r\n    /**\r\n     * @dev Approves another address to transfer the given token ID\r\n     * The zero address indicates there is no approved address.\r\n     * There can only be one approved address per token at a given time.\r\n     * Can only be called by the token owner or an approved operator.\r\n     * @param _to address to be approved for the given token ID\r\n     * @param _tokenId uint256 ID of the token to be approved\r\n     */\r\n    function approve(address _to, uint256 _tokenId) \r\n        public \r\n        whenNotPaused \r\n    {\r\n        address owner = ownerOf(_tokenId);\r\n        require(_to != owner);\r\n        require(msg.sender == owner || isApprovedForAll(owner, msg.sender));\r\n\r\n        tokenApprovals[_tokenId] = _to;\r\n        emit Approval(owner, _to, _tokenId);\r\n    }\r\n\r\n    /**\r\n     * @dev Gets the approved address for a token ID, or zero if no address set\r\n     * @param _tokenId uint256 ID of the token to query the approval of\r\n     * @return address currently approved for the given token ID\r\n     */\r\n    function getApproved(uint256 _tokenId) \r\n        public \r\n        view \r\n        returns (address) \r\n    {\r\n        return tokenApprovals[_tokenId];\r\n    }\r\n\r\n    /**\r\n     * @dev Sets or unsets the approval of a given operator\r\n     * An operator is allowed to transfer all tokens of the sender on their behalf\r\n     * @param _to operator address to set the approval\r\n     * @param _approved representing the status of the approval to be set\r\n     */\r\n    function setApprovalForAll(address _to, bool _approved) \r\n        public \r\n        whenNotPaused \r\n    {\r\n        require(_to != msg.sender);\r\n        operatorApprovals[msg.sender][_to] = _approved;\r\n        emit ApprovalForAll(msg.sender, _to, _approved);\r\n    }\r\n\r\n    /**\r\n     * @dev Tells whether an operator is approved by a given owner\r\n     * @param _owner owner address which you want to query the approval of\r\n     * @param _operator operator address which you want to query the approval of\r\n     * @return bool whether the given operator is approved by the given owner\r\n     */\r\n    function isApprovedForAll(address _owner, address _operator)\r\n        public\r\n        view\r\n        returns (bool)\r\n    {\r\n        return operatorApprovals[_owner][_operator];\r\n    }\r\n\r\n    /**\r\n     * @dev Transfers the ownership of a given token ID to another address\r\n     * Usage of this method is discouraged, use `safeTransferFrom` whenever possible\r\n     * Requires the msg sender to be the owner, approved, or operator\r\n     * @param _from current owner of the token\r\n     * @param _to address to receive the ownership of the given token ID\r\n     * @param _tokenId uint256 ID of the token to be transferred\r\n    */\r\n    function transferFrom(\r\n        address _from,\r\n        address _to,\r\n        uint256 _tokenId\r\n    )\r\n        public\r\n        whenNotPaused\r\n        canTransfer(_tokenId)\r\n    {\r\n        require(_from != address(0));\r\n        require(_to != address(0));\r\n\r\n        clearApproval(_from, _tokenId);\r\n        removeTokenFrom(_from, _tokenId);\r\n        addTokenTo(_to, _tokenId);\r\n\r\n        emit Transfer(_from, _to, _tokenId);\r\n    }\r\n\r\n    /**\r\n     * @dev Safely transfers the ownership of a given token ID to another address\r\n     * If the target address is a contract, it must implement `onERC721Received`,\r\n     * which is called upon a safe transfer, and return the magic value\r\n     * `bytes4(keccak256(\"onERC721Received(address,uint256,bytes)\"))`; otherwise,\r\n     * the transfer is reverted.\r\n     *\r\n     * Requires the msg sender to be the owner, approved, or operator\r\n     * @param _from current owner of the token\r\n     * @param _to address to receive the ownership of the given token ID\r\n     * @param _tokenId uint256 ID of the token to be transferred\r\n    */\r\n    function safeTransferFrom(\r\n        address _from,\r\n        address _to,\r\n        uint256 _tokenId\r\n    )\r\n        public\r\n        whenNotPaused\r\n        canTransfer(_tokenId)\r\n    {\r\n        // solium-disable-next-line arg-overflow\r\n        safeTransferFrom(_from, _to, _tokenId, \"\");\r\n    }\r\n\r\n    /**\r\n     * @dev Safely transfers the ownership of a given token ID to another address\r\n     * If the target address is a contract, it must implement `onERC721Received`,\r\n     * which is called upon a safe transfer, and return the magic value\r\n     * `bytes4(keccak256(\"onERC721Received(address,uint256,bytes)\"))`; otherwise,\r\n     * the transfer is reverted.\r\n     * Requires the msg sender to be the owner, approved, or operator\r\n     * @param _from current owner of the token\r\n     * @param _to address to receive the ownership of the given token ID\r\n     * @param _tokenId uint256 ID of the token to be transferred\r\n     * @param _data bytes data to send along with a safe transfer check\r\n     */\r\n    function safeTransferFrom(\r\n        address _from,\r\n        address _to,\r\n        uint256 _tokenId,\r\n        bytes _data\r\n    )\r\n        public\r\n        whenNotPaused\r\n        canTransfer(_tokenId)\r\n    {\r\n        transferFrom(_from, _to, _tokenId);\r\n        // solium-disable-next-line arg-overflow\r\n        require(checkAndCallSafeTransfer(_from, _to, _tokenId, _data));\r\n    }\r\n\r\n    /**\r\n     * @dev Returns whether the given spender can transfer a given token ID\r\n     * @param _spender address of the spender to query\r\n     * @param _tokenId uint256 ID of the token to be transferred\r\n     * @return bool whether the msg.sender is approved for the given token ID,\r\n     *    is an operator of the owner, or is the owner of the token\r\n     */\r\n    function isApprovedOrOwner(address _spender, uint256 _tokenId)\r\n        internal\r\n        view\r\n        returns (bool)\r\n    {\r\n        address owner = ownerOf(_tokenId);\r\n        // Disable solium check because of\r\n        // https://github.com/duaraghav8/Solium/issues/175\r\n        // solium-disable-next-line operator-whitespace\r\n        return (\r\n            _spender == owner ||\r\n            getApproved(_tokenId) == _spender ||\r\n            isApprovedForAll(owner, _spender)\r\n        );\r\n    }\r\n\r\n    /**\r\n     * @dev Internal function to mint a new token\r\n     * Reverts if the given token ID already exists\r\n     * @param _to The address that will own the minted token\r\n     * @param _tokenId uint256 ID of the token to be minted by the msg.sender\r\n     */\r\n    function _mint(address _to, uint256 _tokenId) \r\n        internal \r\n    {\r\n        require(_to != address(0));\r\n        addTokenTo(_to, _tokenId);\r\n        emit Transfer(address(0), _to, _tokenId);\r\n    }\r\n\r\n    /**\r\n     * @dev Internal function to burn a specific token\r\n     * Reverts if the token does not exist\r\n     * @param _tokenId uint256 ID of the token being burned by the msg.sender\r\n     */\r\n    function _burn(address _owner, uint256 _tokenId) \r\n        internal \r\n    {\r\n        clearApproval(_owner, _tokenId);\r\n        removeTokenFrom(_owner, _tokenId);\r\n        emit Transfer(_owner, address(0), _tokenId);\r\n    }\r\n\r\n    /**\r\n     * @dev Internal function to clear current approval of a given token ID\r\n     * Reverts if the given address is not indeed the owner of the token\r\n     * @param _owner owner of the token\r\n     * @param _tokenId uint256 ID of the token to be transferred\r\n     */\r\n    function clearApproval(address _owner, uint256 _tokenId) \r\n        internal \r\n    {\r\n        require(ownerOf(_tokenId) == _owner);\r\n        if (tokenApprovals[_tokenId] != address(0)) {\r\n            tokenApprovals[_tokenId] = address(0);\r\n            emit Approval(_owner, address(0), _tokenId);\r\n        }\r\n    }\r\n\r\n    /**\r\n     * @dev Internal function to add a token ID to the list of a given address\r\n     * @param _to address representing the new owner of the given token ID\r\n     * @param _tokenId uint256 ID of the token to be added to the tokens list of the given address\r\n     */\r\n    function addTokenTo(address _to, uint256 _tokenId) \r\n        internal \r\n    {\r\n        require(tokenOwner[_tokenId] == address(0));\r\n        tokenOwner[_tokenId] = _to;\r\n        ownedTokensCount[_to] = ownedTokensCount[_to].add(1);\r\n    }\r\n\r\n    /**\r\n     * @dev Internal function to remove a token ID from the list of a given address\r\n     * @param _from address representing the previous owner of the given token ID\r\n     * @param _tokenId uint256 ID of the token to be removed from the tokens list of the given address\r\n     */\r\n    function removeTokenFrom(address _from, uint256 _tokenId) \r\n        internal \r\n    {\r\n        require(ownerOf(_tokenId) == _from);\r\n        ownedTokensCount[_from] = ownedTokensCount[_from].sub(1);\r\n        tokenOwner[_tokenId] = address(0);\r\n    }\r\n\r\n    /**\r\n     * @dev Internal function to invoke `onERC721Received` on a target address\r\n     * The call is not executed if the target address is not a contract\r\n     * @param _from address representing the previous owner of the given token ID\r\n     * @param _to target address that will receive the tokens\r\n     * @param _tokenId uint256 ID of the token to be transferred\r\n     * @param _data bytes optional data to send along with the call\r\n     * @return whether the call correctly returned the expected magic value\r\n     */\r\n    function checkAndCallSafeTransfer(\r\n        address _from,\r\n        address _to,\r\n        uint256 _tokenId,\r\n        bytes _data\r\n    )\r\n        internal\t\r\n        returns (bool)\r\n    {\r\n        if (!_to.isContract()) {\r\n            return true;\r\n        }\r\n        bytes4 retval = ERC721Receiver(_to).onERC721Received(\r\n            _from, _tokenId, _data);\r\n        return (retval == ERC721_RECEIVED);\r\n    }\r\n}\r\n\r\n/**\r\n * @title ERC721Token\r\n * Full ERC721 Token\r\n * This implementation includes all the required and some optional functionality of the ERC721 standard\r\n * Moreover, it includes approve all functionality using operator terminology\r\n * @dev see https://github.com/ethereum/EIPs/blob/master/EIPS/eip-721.md\r\n */\r\ncontract ERC721Token is SupportsInterfaceWithLookup, ERC721BasicToken, ERC721 {\r\n\r\n    bytes4 private constant InterfaceId_ERC721Enumerable = 0x780e9d63;\r\n    /**\r\n     * 0x780e9d63 ===\r\n     *     bytes4(keccak256('totalSupply()')) ^\r\n     *     bytes4(keccak256('tokenOfOwnerByIndex(address,uint256)')) ^\r\n     *     bytes4(keccak256('tokenByIndex(uint256)'))\r\n     */\r\n\r\n    bytes4 private constant InterfaceId_ERC721Metadata = 0x5b5e139f;\r\n    /**\r\n     * 0x5b5e139f ===\r\n     *     bytes4(keccak256('name()')) ^\r\n     *     bytes4(keccak256('symbol()')) ^\r\n     *     bytes4(keccak256('tokenURI(uint256)'))\r\n     */\r\n\r\n    // Token name\r\n    string internal name_;\r\n\r\n    // Token symbol\r\n    string internal symbol_;\r\n\r\n    // Mapping from owner to list of owned token IDs\r\n    mapping(address => uint256[]) internal ownedTokens;\r\n\r\n    // Mapping from token ID to index of the owner tokens list\r\n    mapping(uint256 => uint256) internal ownedTokensIndex;\r\n\r\n    // Array with all token ids, used for enumeration\r\n    uint256[] internal allTokens;\r\n\r\n    // Mapping from token id to position in the allTokens array\r\n    mapping(uint256 => uint256) internal allTokensIndex;\r\n\r\n    // Optional mapping for token URIs\r\n    mapping(uint256 => string) internal tokenURIs;\r\n\r\n    /**\r\n     * @dev Constructor function\r\n     */\r\n    constructor(string _name, string _symbol) \r\n        public \r\n    {\r\n        name_ = _name;\r\n        symbol_ = _symbol;\r\n\r\n        // register the supported interfaces to conform to ERC721 via ERC165\r\n        _registerInterface(InterfaceId_ERC721Enumerable);\r\n        _registerInterface(InterfaceId_ERC721Metadata);\r\n    }\r\n\r\n    /**\r\n     * @dev Gets the token name\r\n     * @return string representing the token name\r\n     */\r\n    function name() \r\n        external \r\n        view \r\n        returns (string) \r\n    {\r\n        return name_;\r\n    }\r\n\r\n    /**\r\n     * @dev Gets the token symbol\r\n     * @return string representing the token symbol\r\n     */\r\n    function symbol() \r\n        external \r\n        view \r\n        returns (string) \r\n    {\r\n        return symbol_;\r\n    }\r\n\r\n    /**\r\n     * @dev Returns an URI for a given token ID\r\n     * Throws if the token ID does not exist. May return an empty string.\r\n     * @param _tokenId uint256 ID of the token to query\r\n     */\r\n    function tokenURI(uint256 _tokenId) \r\n        public \r\n        view \r\n        returns (string) \r\n    {\r\n        require(exists(_tokenId));\r\n        return tokenURIs[_tokenId];\r\n    }\r\n\r\n    /**\r\n     * @dev Gets the token ID at a given index of the tokens list of the requested owner\r\n     * @param _owner address owning the tokens list to be accessed\r\n     * @param _index uint256 representing the index to be accessed of the requested tokens list\r\n     * @return uint256 token ID at the given index of the tokens list owned by the requested address\r\n     */\r\n    function tokenOfOwnerByIndex(\r\n        address _owner,\r\n        uint256 _index\r\n    )\r\n        public\r\n        view\r\n        returns (uint256)\r\n    {\r\n        require(_index < balanceOf(_owner));\r\n        return ownedTokens[_owner][_index];\r\n    }\r\n\r\n    /**\r\n     * @dev Gets the total amount of tokens stored by the contract\r\n     * @return uint256 representing the total amount of tokens\r\n     */\r\n    function totalSupply() \r\n        public \r\n        view \r\n        returns (uint256) \r\n    {\r\n        return allTokens.length;\r\n    }\r\n\r\n    /**\r\n     * @dev Gets the token ID at a given index of all the tokens in this contract\r\n     * Reverts if the index is greater or equal to the total number of tokens\r\n     * @param _index uint256 representing the index to be accessed of the tokens list\r\n     * @return uint256 token ID at the given index of the tokens list\r\n     */\r\n    function tokenByIndex(uint256 _index) \r\n        public \r\n        view \r\n        returns (uint256) \r\n    {\r\n        require(_index < totalSupply());\r\n        return allTokens[_index];\r\n    }\r\n\r\n    /**\r\n     * @dev Internal function to set the token URI for a given token\r\n     * Reverts if the token ID does not exist\r\n     * @param _tokenId uint256 ID of the token to set its URI\r\n     * @param _uri string URI to assign\r\n     */\r\n    function _setTokenURI(uint256 _tokenId, string _uri) \r\n        internal \r\n    {\r\n        require(exists(_tokenId));\r\n        tokenURIs[_tokenId] = _uri;\r\n    }\r\n\r\n    /**\r\n     * @dev Internal function to add a token ID to the list of a given address\r\n     * @param _to address representing the new owner of the given token ID\r\n     * @param _tokenId uint256 ID of the token to be added to the tokens list of the given address\r\n     */\r\n    function addTokenTo(address _to, uint256 _tokenId) \r\n        internal \r\n    {\r\n        super.addTokenTo(_to, _tokenId);\r\n        uint256 length = ownedTokens[_to].length;\r\n        ownedTokens[_to].push(_tokenId);\r\n        ownedTokensIndex[_tokenId] = length;\r\n    }\r\n\r\n    /**\r\n     * @dev Internal function to remove a token ID from the list of a given address\r\n     * @param _from address representing the previous owner of the given token ID\r\n     * @param _tokenId uint256 ID of the token to be removed from the tokens list of the given address\r\n     */\r\n    function removeTokenFrom(address _from, uint256 _tokenId) \r\n        internal\r\n    {\r\n        super.removeTokenFrom(_from, _tokenId);\r\n\r\n        uint256 tokenIndex = ownedTokensIndex[_tokenId];\r\n        uint256 lastTokenIndex = ownedTokens[_from].length.sub(1);\r\n        uint256 lastToken = ownedTokens[_from][lastTokenIndex];\r\n\r\n        ownedTokens[_from][tokenIndex] = lastToken;\r\n        ownedTokens[_from][lastTokenIndex] = 0;\r\n        // Note that this will handle single-element arrays. In that case, both tokenIndex and lastTokenIndex are going to\r\n        // be zero. Then we can make sure that we will remove _tokenId from the ownedTokens list since we are first swapping\r\n        // the lastToken to the first position, and then dropping the element placed in the last position of the list\r\n\r\n        ownedTokens[_from].length--;\r\n        ownedTokensIndex[_tokenId] = 0;\r\n        ownedTokensIndex[lastToken] = tokenIndex;\r\n    }\r\n\r\n    /**\r\n     * @dev Internal function to mint a new token\r\n     * Reverts if the given token ID already exists\r\n     * @param _to address the beneficiary that will own the minted token\r\n     * @param _tokenId uint256 ID of the token to be minted by the msg.sender\r\n     */\r\n    function _mint(address _to, uint256 _tokenId) \r\n        internal \r\n    {\r\n        super._mint(_to, _tokenId);\r\n\r\n        allTokensIndex[_tokenId] = allTokens.length;\r\n        allTokens.push(_tokenId);\r\n    }\r\n\r\n    /**\r\n     * @dev Internal function to burn a specific token\r\n     * Reverts if the token does not exist\r\n     * @param _owner owner of the token to burn\r\n     * @param _tokenId uint256 ID of the token being burned by the msg.sender\r\n     */\r\n    function _burn(address _owner, uint256 _tokenId) \r\n        internal \r\n    {\r\n        super._burn(_owner, _tokenId);\r\n\r\n        // Clear metadata (if any)\r\n        if (bytes(tokenURIs[_tokenId]).length != 0) {\r\n            delete tokenURIs[_tokenId];\r\n        }\r\n\r\n        // Reorg all tokens array\r\n        uint256 tokenIndex = allTokensIndex[_tokenId];\r\n        uint256 lastTokenIndex = allTokens.length.sub(1);\r\n        uint256 lastToken = allTokens[lastTokenIndex];\r\n\r\n        allTokens[tokenIndex] = lastToken;\r\n        allTokens[lastTokenIndex] = 0;\r\n\r\n        allTokens.length--;\r\n        allTokensIndex[_tokenId] = 0;\r\n        allTokensIndex[lastToken] = tokenIndex;\r\n    }\r\n}",
  "sourcePath": "/home/flyq/workspace/LeBlock/LeBlock/contracts/ERC721Token.sol",
  "compiler": {
    "name": "solc",
    "version": "0.4.24+commit.e67f0147.Emscripten.clang"
  },
  "schemaVersion": "2.0.1",
  "updatedAt": "2018-08-06T09:20:37.647Z"
}