{
  "contractName": "Leblock_main",
  "abi": [
    {
      "constant": true,
      "inputs": [
        {
          "name": "_interfaceId",
          "type": "bytes4"
        }
      ],
      "name": "supportsInterface",
      "outputs": [
        {
          "name": "",
          "type": "bool"
        }
      ],
      "payable": false,
      "stateMutability": "view",
      "type": "function"
    },
    {
      "constant": false,
      "inputs": [
        {
          "name": "_admin",
          "type": "address"
        }
      ],
      "name": "removeAdmin",
      "outputs": [],
      "payable": false,
      "stateMutability": "nonpayable",
      "type": "function"
    },
    {
      "constant": true,
      "inputs": [],
      "name": "InterfaceId_ERC165",
      "outputs": [
        {
          "name": "",
          "type": "bytes4"
        }
      ],
      "payable": false,
      "stateMutability": "view",
      "type": "function"
    },
    {
      "constant": false,
      "inputs": [],
      "name": "unpause",
      "outputs": [],
      "payable": false,
      "stateMutability": "nonpayable",
      "type": "function"
    },
    {
      "constant": true,
      "inputs": [
        {
          "name": "",
          "type": "address"
        }
      ],
      "name": "admins",
      "outputs": [
        {
          "name": "",
          "type": "bool"
        }
      ],
      "payable": false,
      "stateMutability": "view",
      "type": "function"
    },
    {
      "constant": true,
      "inputs": [],
      "name": "paused",
      "outputs": [
        {
          "name": "",
          "type": "bool"
        }
      ],
      "payable": false,
      "stateMutability": "view",
      "type": "function"
    },
    {
      "constant": false,
      "inputs": [
        {
          "name": "_admin",
          "type": "address"
        }
      ],
      "name": "addAdmin",
      "outputs": [],
      "payable": false,
      "stateMutability": "nonpayable",
      "type": "function"
    },
    {
      "constant": false,
      "inputs": [],
      "name": "acceptOwnership",
      "outputs": [],
      "payable": false,
      "stateMutability": "nonpayable",
      "type": "function"
    },
    {
      "constant": false,
      "inputs": [],
      "name": "pause",
      "outputs": [],
      "payable": false,
      "stateMutability": "nonpayable",
      "type": "function"
    },
    {
      "constant": true,
      "inputs": [],
      "name": "owner",
      "outputs": [
        {
          "name": "",
          "type": "address"
        }
      ],
      "payable": false,
      "stateMutability": "view",
      "type": "function"
    },
    {
      "constant": true,
      "inputs": [],
      "name": "newOwner",
      "outputs": [
        {
          "name": "",
          "type": "address"
        }
      ],
      "payable": false,
      "stateMutability": "view",
      "type": "function"
    },
    {
      "constant": false,
      "inputs": [
        {
          "name": "_newOwner",
          "type": "address"
        }
      ],
      "name": "transferOwnership",
      "outputs": [],
      "payable": false,
      "stateMutability": "nonpayable",
      "type": "function"
    },
    {
      "inputs": [],
      "payable": false,
      "stateMutability": "nonpayable",
      "type": "constructor"
    },
    {
      "anonymous": false,
      "inputs": [
        {
          "indexed": true,
          "name": "_user",
          "type": "address"
        },
        {
          "indexed": true,
          "name": "_amount",
          "type": "uint256"
        }
      ],
      "name": "Recharge",
      "type": "event"
    },
    {
      "anonymous": false,
      "inputs": [
        {
          "indexed": true,
          "name": "_user",
          "type": "address"
        },
        {
          "indexed": true,
          "name": "_amount",
          "type": "int256"
        }
      ],
      "name": "ChangeDeposit",
      "type": "event"
    },
    {
      "anonymous": false,
      "inputs": [],
      "name": "Pause",
      "type": "event"
    },
    {
      "anonymous": false,
      "inputs": [],
      "name": "Unpause",
      "type": "event"
    },
    {
      "anonymous": false,
      "inputs": [
        {
          "indexed": true,
          "name": "_from",
          "type": "address"
        },
        {
          "indexed": true,
          "name": "_to",
          "type": "address"
        }
      ],
      "name": "OwnershipTransferred",
      "type": "event"
    },
    {
      "constant": false,
      "inputs": [
        {
          "name": "_tokenId",
          "type": "uint256"
        },
        {
          "name": "_tokenAddr",
          "type": "address"
        }
      ],
      "name": "setTokenAddr",
      "outputs": [],
      "payable": false,
      "stateMutability": "nonpayable",
      "type": "function"
    },
    {
      "constant": true,
      "inputs": [
        {
          "name": "_tokenId",
          "type": "uint256"
        }
      ],
      "name": "getTokenAddr",
      "outputs": [
        {
          "name": "",
          "type": "address"
        }
      ],
      "payable": false,
      "stateMutability": "view",
      "type": "function"
    },
    {
      "constant": false,
      "inputs": [
        {
          "name": "_user",
          "type": "address"
        },
        {
          "name": "_amount",
          "type": "uint256"
        }
      ],
      "name": "recharge",
      "outputs": [],
      "payable": false,
      "stateMutability": "nonpayable",
      "type": "function"
    },
    {
      "constant": false,
      "inputs": [
        {
          "name": "_amount",
          "type": "int256"
        }
      ],
      "name": "changeDeposit",
      "outputs": [],
      "payable": false,
      "stateMutability": "nonpayable",
      "type": "function"
    }
  ],
  "bytecode": "0x60806040526000600460006101000a81548160ff02191690831515021790555034801561002b57600080fd5b506100676301ffc9a77c01000000000000000000000000000000000000000000000000000000000261006c640100000000026401000000009004565b610129565b63ffffffff7c010000000000000000000000000000000000000000000000000000000002817bffffffffffffffffffffffffffffffffffffffffffffffffffffffff1916141515156100bd57600080fd5b6001600080837bffffffffffffffffffffffffffffffffffffffffffffffffffffffff19167bffffffffffffffffffffffffffffffffffffffffffffffffffffffff1916815260200190815260200160002060006101000a81548160ff02191690831515021790555050565b611700806101386000396000f3006080604052600436106100e6576000357c0100000000000000000000000000000000000000000000000000000000900463ffffffff16806301ffc9a7146100eb57806304569f5f1461014f5780631785f53c146101bc57806319fa8f50146101ff5780632dbb0a7e1461026857806336351c7c146102b55780633f4ba83a14610302578063429b62e5146103195780635c975abb1461037457806370480275146103a357806379ba5097146103e65780638456cb59146103fd5780638da5cb5b14610414578063a83efa651461046b578063d4ee1d9014610498578063f2fde38b146104ef575b600080fd5b3480156100f757600080fd5b5061013560048036038101908080357bffffffffffffffffffffffffffffffffffffffffffffffffffffffff19169060200190929190505050610532565b604051808215151515815260200191505060405180910390f35b34801561015b57600080fd5b5061017a60048036038101908080359060200190929190505050610599565b604051808273ffffffffffffffffffffffffffffffffffffffff1673ffffffffffffffffffffffffffffffffffffffff16815260200191505060405180910390f35b3480156101c857600080fd5b506101fd600480360381019080803573ffffffffffffffffffffffffffffffffffffffff1690602001909291905050506105d6565b005b34801561020b57600080fd5b50610214610684565b60405180827bffffffffffffffffffffffffffffffffffffffffffffffffffffffff19167bffffffffffffffffffffffffffffffffffffffffffffffffffffffff1916815260200191505060405180910390f35b34801561027457600080fd5b506102b360048036038101908080359060200190929190803573ffffffffffffffffffffffffffffffffffffffff1690602001909291905050506106ab565b005b3480156102c157600080fd5b50610300600480360381019080803573ffffffffffffffffffffffffffffffffffffffff16906020019092919080359060200190929190505050610775565b005b34801561030e57600080fd5b506103176108c6565b005b34801561032557600080fd5b5061035a600480360381019080803573ffffffffffffffffffffffffffffffffffffffff169060200190929190505050610982565b604051808215151515815260200191505060405180910390f35b34801561038057600080fd5b506103896109a2565b604051808215151515815260200191505060405180910390f35b3480156103af57600080fd5b506103e4600480360381019080803573ffffffffffffffffffffffffffffffffffffffff1690602001909291905050506109b5565b005b3480156103f257600080fd5b506103fb610a6c565b005b34801561040957600080fd5b50610412610c0d565b005b34801561042057600080fd5b50610429610cca565b604051808273ffffffffffffffffffffffffffffffffffffffff1673ffffffffffffffffffffffffffffffffffffffff16815260200191505060405180910390f35b34801561047757600080fd5b5061049660048036038101908080359060200190929190505050610cf0565b005b3480156104a457600080fd5b506104ad6113f0565b604051808273ffffffffffffffffffffffffffffffffffffffff1673ffffffffffffffffffffffffffffffffffffffff16815260200191505060405180910390f35b3480156104fb57600080fd5b50610530600480360381019080803573ffffffffffffffffffffffffffffffffffffffff169060200190929190505050611416565b005b6000806000837bffffffffffffffffffffffffffffffffffffffffffffffffffffffff19167bffffffffffffffffffffffffffffffffffffffffffffffffffffffff1916815260200190815260200160002060009054906101000a900460ff169050919050565b60006005600083815260200190815260200160002060009054906101000a900473ffffffffffffffffffffffffffffffffffffffff169050919050565b600160009054906101000a900473ffffffffffffffffffffffffffffffffffffffff1673ffffffffffffffffffffffffffffffffffffffff163373ffffffffffffffffffffffffffffffffffffffff1614151561063257600080fd5b600360008273ffffffffffffffffffffffffffffffffffffffff1673ffffffffffffffffffffffffffffffffffffffff16815260200190815260200160002060006101000a81549060ff021916905550565b6301ffc9a77c01000000000000000000000000000000000000000000000000000000000281565b600460009054906101000a900460ff161515156106c757600080fd5b600360003373ffffffffffffffffffffffffffffffffffffffff1673ffffffffffffffffffffffffffffffffffffffff16815260200190815260200160002060009054906101000a900460ff16151561071f57600080fd5b806005600084815260200190815260200160002060006101000a81548173ffffffffffffffffffffffffffffffffffffffff021916908373ffffffffffffffffffffffffffffffffffffffff1602179055505050565b600460009054906101000a900460ff1615151561079157600080fd5b600360003373ffffffffffffffffffffffffffffffffffffffff1673ffffffffffffffffffffffffffffffffffffffff16815260200190815260200160002060009054906101000a900460ff1615156107e957600080fd5b61083b81600660008573ffffffffffffffffffffffffffffffffffffffff1673ffffffffffffffffffffffffffffffffffffffff168152602001908152602001600020546114b690919063ffffffff16565b600660008473ffffffffffffffffffffffffffffffffffffffff1673ffffffffffffffffffffffffffffffffffffffff16815260200190815260200160002081905550808273ffffffffffffffffffffffffffffffffffffffff167f78d9de6f3ad1cae9e0cbcbaa5267fd90f6a6728831eec42b7c147b398b22692460405160405180910390a35050565b600360003373ffffffffffffffffffffffffffffffffffffffff1673ffffffffffffffffffffffffffffffffffffffff16815260200190815260200160002060009054906101000a900460ff16151561091e57600080fd5b600460009054906101000a900460ff16151561093957600080fd5b6000600460006101000a81548160ff0219169083151502179055507f7805862f689e2f13df9f062ff482ad3ad112aca9e0847911ed832e158c525b3360405160405180910390a1565b60036020528060005260406000206000915054906101000a900460ff1681565b600460009054906101000a900460ff1681565b600160009054906101000a900473ffffffffffffffffffffffffffffffffffffffff1673ffffffffffffffffffffffffffffffffffffffff163373ffffffffffffffffffffffffffffffffffffffff16141515610a1157600080fd5b6001600360008373ffffffffffffffffffffffffffffffffffffffff1673ffffffffffffffffffffffffffffffffffffffff16815260200190815260200160002060006101000a81548160ff02191690831515021790555050565b600260009054906101000a900473ffffffffffffffffffffffffffffffffffffffff1673ffffffffffffffffffffffffffffffffffffffff163373ffffffffffffffffffffffffffffffffffffffff16141515610ac857600080fd5b600260009054906101000a900473ffffffffffffffffffffffffffffffffffffffff1673ffffffffffffffffffffffffffffffffffffffff16600160009054906101000a900473ffffffffffffffffffffffffffffffffffffffff1673ffffffffffffffffffffffffffffffffffffffff167f8be0079c531659141344cd1fd0a4f28419497f9722a3daafe3b4186f6b6457e060405160405180910390a3600260009054906101000a900473ffffffffffffffffffffffffffffffffffffffff16600160006101000a81548173ffffffffffffffffffffffffffffffffffffffff021916908373ffffffffffffffffffffffffffffffffffffffff1602179055506000600260006101000a81548173ffffffffffffffffffffffffffffffffffffffff021916908373ffffffffffffffffffffffffffffffffffffffff160217905550565b600360003373ffffffffffffffffffffffffffffffffffffffff1673ffffffffffffffffffffffffffffffffffffffff16815260200190815260200160002060009054906101000a900460ff161515610c6557600080fd5b600460009054906101000a900460ff16151515610c8157600080fd5b6001600460006101000a81548160ff0219169083151502179055507f6985a02210a168e66602d3235cb6db0e70f92b3ba4d376a33c0f3d9434bff62560405160405180910390a1565b600160009054906101000a900473ffffffffffffffffffffffffffffffffffffffff1681565b6000806000806000600460009054906101000a900460ff16151515610d1457600080fd5b60008614151515610d2457600080fd5b85610d4c600a610d3e600a8a6114d290919063ffffffff16565b61154490919063ffffffff16565b141515610d5857600080fd5b6000610dac87600660003373ffffffffffffffffffffffffffffffffffffffff1673ffffffffffffffffffffffffffffffffffffffff1681526020019081526020016000205461162590919063ffffffff16565b12151515610db957600080fd5b6000610e1087600d60003373ffffffffffffffffffffffffffffffffffffffff1673ffffffffffffffffffffffffffffffffffffffff1681526020019081526020016000206002015461166490919063ffffffff16565b12151515610e1d57600080fd5b610e31600a876114d290919063ffffffff16565b9450610e8d610e8887600660003373ffffffffffffffffffffffffffffffffffffffff1673ffffffffffffffffffffffffffffffffffffffff1681526020019081526020016000205461162590919063ffffffff16565b6116a5565b600660003373ffffffffffffffffffffffffffffffffffffffff1673ffffffffffffffffffffffffffffffffffffffff16815260200190815260200160002081905550610f2d610f2887600d60003373ffffffffffffffffffffffffffffffffffffffff1673ffffffffffffffffffffffffffffffffffffffff1681526020019081526020016000206002015461166490919063ffffffff16565b6116a5565b600d60003373ffffffffffffffffffffffffffffffffffffffff1673ffffffffffffffffffffffffffffffffffffffff16815260200190815260200160002060020181905550610fd0610fcb86600d60003373ffffffffffffffffffffffffffffffffffffffff1673ffffffffffffffffffffffffffffffffffffffff1681526020019081526020016000206001015461166490919063ffffffff16565b6116a5565b600d60003373ffffffffffffffffffffffffffffffffffffffff1673ffffffffffffffffffffffffffffffffffffffff16815260200190815260200160002060010181905550600086131561117b576001600c540193505b611031856116a5565b600c54018411151561117657600073ffffffffffffffffffffffffffffffffffffffff16600a600086815260200190815260200160002060009054906101000a900473ffffffffffffffffffffffffffffffffffffffff1673ffffffffffffffffffffffffffffffffffffffff161415156110ab57600080fd5b33600a600086815260200190815260200160002060006101000a81548173ffffffffffffffffffffffffffffffffffffffff021916908373ffffffffffffffffffffffffffffffffffffffff160217905550600d60003373ffffffffffffffffffffffffffffffffffffffff1673ffffffffffffffffffffffffffffffffffffffff1681526020019081526020016000206003018490806001815401808255809150509060018203906000526020600020016000909192909190915055508380600101945050611028565b611381565b600d60003373ffffffffffffffffffffffffffffffffffffffff1673ffffffffffffffffffffffffffffffffffffffff1681526020019081526020016000206003018054905092508291505b6111e86111d6600187016116a5565b600003846116bb90919063ffffffff16565b82111561138057600d60003373ffffffffffffffffffffffffffffffffffffffff1673ffffffffffffffffffffffffffffffffffffffff1681526020019081526020016000206003018281548110151561123e57fe5b90600052602060002001549050600c5481141561137257600d60003373ffffffffffffffffffffffffffffffffffffffff1673ffffffffffffffffffffffffffffffffffffffff168152602001908152602001600020600301828154811015156112a457fe5b9060005260206000200160009055600a6000600c54815260200190815260200160002060009054906101000a900473ffffffffffffffffffffffffffffffffffffffff16600a600083815260200190815260200160002060006101000a81548173ffffffffffffffffffffffffffffffffffffffff021916908373ffffffffffffffffffffffffffffffffffffffff160217905550600a6000600c54815260200190815260200160002060006101000a81549073ffffffffffffffffffffffffffffffffffffffff02191690555b8180600190039250506111c7565b5b61139e61139986600c5461166490919063ffffffff16565b6116a5565b600c81905550853373ffffffffffffffffffffffffffffffffffffffff167fb7c17aaffac6cac3f2405674a2cd4a6ed86d18173af304c9f10781749ee07e5360405160405180910390a3505050505050565b600260009054906101000a900473ffffffffffffffffffffffffffffffffffffffff1681565b600160009054906101000a900473ffffffffffffffffffffffffffffffffffffffff1673ffffffffffffffffffffffffffffffffffffffff163373ffffffffffffffffffffffffffffffffffffffff1614151561147257600080fd5b80600260006101000a81548173ffffffffffffffffffffffffffffffffffffffff021916908373ffffffffffffffffffffffffffffffffffffffff16021790555050565b600081830190508281101515156114c957fe5b80905092915050565b6000807f80000000000000000000000000000000000000000000000000000000000000008414801561152357507fffffffffffffffffffffffffffffffffffffffffffffffffffffffffffffffff83145b15151561152c57fe5b828481151561153757fe5b0590508091505092915050565b6000807f80000000000000000000000000000000000000000000000000000000000000008414801561159557507fffffffffffffffffffffffffffffffffffffffffffffffffffffffffffffffff83145b1580156115ed57507f8000000000000000000000000000000000000000000000000000000000000000831480156115eb57507fffffffffffffffffffffffffffffffffffffffffffffffffffffffffffffffff84145b155b15156115f557fe5b82840290506000831480611613575083838281151561161057fe5b05145b151561161b57fe5b8091505092915050565b600080821215801561163957508282840313155b806116515750600082128015611650575082828403135b5b151561165957fe5b818303905092915050565b60008082840190506000831215801561167d5750838112155b80611693575060008312801561169257508381125b5b151561169b57fe5b8091505092915050565b60008082121515156116b357fe5b819050919050565b60008282111515156116c957fe5b8183039050929150505600a165627a7a723058201f271e2a4536eaf4a9d834015c4d912f4d912c9ef375177abbe74cc60956c8a60029",
  "source": "pragma solidity ^0.4.24;\r\n\r\nimport \"./SafeMath.sol\";\r\nimport \"./SafeMathInt.sol\";\r\nimport \"./AddressUtils.sol\";\r\nimport \"./Pausable.sol\";\r\nimport \"./QueueStru.sol\";\r\n\r\n/**\r\n * @title ERC165\r\n * @dev https://github.com/ethereum/EIPs/blob/master/EIPS/eip-165.md\r\n */\r\ninterface ERC165 {\r\n\r\n    /**\r\n     * @notice Query if a contract implements an interface\r\n     * @param _interfaceId The interface identifier, as specified in ERC-165\r\n     * @dev Interface identification is specified in ERC-165. This function\r\n     * uses less than 30,000 gas.\r\n     */\r\n    function supportsInterface(bytes4 _interfaceId)\r\n        external\r\n        view\r\n        returns (bool);\r\n}\r\n\r\n/**\r\n * @title SupportsInterfaceWithLookup\r\n * @author Matt Condon (@shrugs)\r\n * @dev Implements ERC165 using a lookup table.\r\n */\r\ncontract SupportsInterfaceWithLookup is ERC165 {\r\n    bytes4 public constant InterfaceId_ERC165 = 0x01ffc9a7;\r\n    /**\r\n     * 0x01ffc9a7 ===\r\n     *     bytes4(keccak256('supportsInterface(bytes4)'))\r\n     */\r\n\r\n    /**\r\n     * @dev a mapping of interface id to whether or not it's supported\r\n     */\r\n    mapping(bytes4 => bool) internal supportedInterfaces;\r\n\r\n    /**\r\n     * @dev A contract implementing SupportsInterfaceWithLookup\r\n     * implement ERC165 itself\r\n     */\r\n    constructor()\r\n        public\r\n    {\r\n        _registerInterface(InterfaceId_ERC165);\r\n    }\r\n\r\n    /**\r\n     * @dev implement supportsInterface(bytes4) using a lookup table\r\n     */\r\n    function supportsInterface(bytes4 _interfaceId)\r\n        external\r\n        view\r\n        returns (bool)\r\n    {\r\n        return supportedInterfaces[_interfaceId];\r\n    }\r\n\r\n    /**\r\n     * @dev private method for registering an interface\r\n     */\r\n    function _registerInterface(bytes4 _interfaceId)\r\n        internal\r\n    {\r\n        require(_interfaceId != 0xffffffff);\r\n        supportedInterfaces[_interfaceId] = true;\r\n    }\r\n}\r\n\r\n\r\ncontract Leblock_main is SupportsInterfaceWithLookup, Pausable, QueueStru {\r\n    using SafeMath for uint256;\r\n    using SafeMathInt for int256;\r\n    using AddressUtils for address;\r\n\r\n    event Recharge(\r\n        address indexed _user, \r\n        uint256 indexed _amount\r\n    );\r\n\r\n    event ChangeDeposit(\r\n        address indexed _user,\r\n        int256 indexed _amount\r\n    );\r\n\r\n    // mapping from different types leblock to leblock contract address\r\n    mapping (uint256 => address) blockToken;\r\n    \r\n    // Mapping from player to account balance.(TAT)\r\n    mapping (address => uint256) userTatAmount;\r\n\r\n    // Mapping from player to amounts of differnet types blocks\r\n    mapping (address => mapping (address => uint256)) userBlockAmount;\r\n\r\n    // Mapping from player to rank of register memont\r\n    mapping (address => uint256) userRegistrationRank;\r\n    \r\n    // Mapping from block type to amount\r\n    mapping (address => uint256) typesTotalBlock;\r\n\r\n    // mapping from power number to player\r\n    mapping (uint256 => address) powerNumToUser;\r\n\r\n    // totalPlayers\r\n    uint256 totalplayers;\r\n\r\n    // total miner machine power\r\n    uint256 totalMinerPower;\r\n\r\n    // mining machine parameters\r\n    struct Miner {\r\n        address owner;\r\n        // the mining power after recharge deposit\r\n        uint256 minerPower;\r\n        // balance of TAT in deposit room\r\n        uint256 depositAmount;\r\n        // power number\r\n        uint256[] powerNum;\r\n    }\r\n\r\n    mapping (address => Miner) ownerToMiner;\r\n\r\n    constructor() public {\r\n    }\r\n\r\n    /**\r\n     * @dev admin set block address\r\n     */\r\n    function setTokenAddr(uint256 _tokenId, address _tokenAddr)\r\n        whenNotPaused\r\n        onlyAdmins\r\n        public\r\n    {\r\n        blockToken[_tokenId] = _tokenAddr;\r\n    }\r\n\r\n    /**\r\n     * @dev get block address\r\n     */\r\n    function getTokenAddr(uint256 _tokenId) \r\n        view \r\n        public\r\n        returns (address)\r\n    {\r\n        return blockToken[_tokenId];\r\n    }\r\n\r\n    /**\r\n     * @dev using gateway provided by loom or server\r\n     */\r\n    function recharge(address _user, uint256 _amount)\r\n        whenNotPaused \r\n        onlyAdmins\r\n        public\r\n    {\r\n        userTatAmount[_user] = userTatAmount[_user].add(_amount);\r\n\r\n        emit Recharge(_user, _amount);\r\n    }\r\n\r\n    /**\r\n     * @dev player recharge/withdraw TAT to the deposit room\r\n     * @dev if _amount is positive, from account to deposit room,\r\n     * if _amount is negative, from deposit room to account\r\n     */\r\n    function changeDeposit(int256 _amount) \r\n        whenNotPaused \r\n        public \r\n    {\r\n        require(_amount != 0);\r\n        require(_amount.div(10).mul(10) == _amount);\r\n        require(int256(userTatAmount[msg.sender]).sub(_amount) >= 0);\r\n        require(int256(ownerToMiner[msg.sender].depositAmount).add(_amount) >= 0);\r\n\r\n        int256 _increasePower = _amount.div(10);\r\n\r\n        userTatAmount[msg.sender] = (int256(userTatAmount[msg.sender]).sub(_amount))\r\n            .toUint256Safe();\r\n        ownerToMiner[msg.sender].depositAmount = (int256(ownerToMiner[msg.sender].depositAmount)\r\n            .add(_amount)).toUint256Safe();\r\n\r\n        ownerToMiner[msg.sender].minerPower = (int256(ownerToMiner[msg.sender].minerPower)\r\n            .add(_increasePower)).toUint256Safe();\r\n\r\n        if(_amount > 0) {\r\n            for (uint256 i = totalMinerPower + 1; i <= totalMinerPower + _increasePower.toUint256Safe(); i++) {\r\n                require(powerNumToUser[i] == address(0));\r\n                powerNumToUser[i] = msg.sender;\r\n                ownerToMiner[msg.sender].powerNum.push(i);\r\n            }\r\n        } else {\r\n            uint256 _length = ownerToMiner[msg.sender].powerNum.length;\r\n            for (uint256 k = _length; k > _length.sub((0-(_increasePower + 1).toUint256Safe())); k--) {\r\n                uint256 _powerNum = ownerToMiner[msg.sender].powerNum[k];\r\n                if (_powerNum == totalMinerPower) {\r\n                    delete ownerToMiner[msg.sender].powerNum[k];\r\n                    powerNumToUser[_powerNum] = powerNumToUser[totalMinerPower];\r\n                    delete powerNumToUser[totalMinerPower];\r\n                }\r\n            }\r\n        }\r\n\r\n        totalMinerPower = (int256(totalMinerPower).add(_increasePower)).toUint256Safe();\r\n\r\n        emit ChangeDeposit(msg.sender, _amount);\r\n    }\r\n\r\n    /**\r\n     * @return the random packageID \r\n     */\r\n    function _miner(\r\n        // 礼包个数\r\n        uint256 _packageAmount,\r\n        uint256 _totalPower\r\n        )\r\n        internal\r\n        view\r\n        returns (uint256[])\r\n    {\r\n        uint256 random;\r\n        uint256 result;\r\n        uint256[] memory packageId = new uint256[](_packageAmount);\r\n\r\n        for (uint256 i = 0; i < _packageAmount; i++) {\r\n            random = uint256(keccak256(abi.encodePacked(block.difficulty + i))); // assume result is the random number\r\n            result = random % _totalPower;\r\n            packageId[i] = result;\r\n        }\r\n         \r\n        return packageId;\r\n    }\r\n\r\n    /**\r\n     * @dev distribute package\r\n     */\t\r\n    function _getpackage(\r\n        uint256[] memory _userMinerPower,\r\n        uint256[] memory _packageId\r\n        )\r\n        internal\r\n        pure\r\n        returns (uint256)\r\n    {\r\n        uint256 calculator = 0;\r\n        bool[] memory tempArray = new bool[](_userMinerPower.length);\r\n        for (uint256 i = 0; i < _userMinerPower.length; i++) {\r\n            tempArray[_userMinerPower[i]] = true;\r\n        }\r\n\r\n        for (uint256 k = 0; k < _packageId.length; k++) {\r\n            if (tempArray[_packageId[i]] == true) {\r\n                calculator++;\r\n            }\r\n        }\r\n        return calculator;\r\n    }\r\n\r\n    /**\r\n     * @dev launch ERC20 block\r\n     * @param  _chance % is the chance of diff blocks\r\n     * @param _total is the upper limit of block\r\n     * @dev totalMinerPower >= 100\r\n     */\r\n    function _minerBlock(uint256 _chance, uint256 _total)\r\n        view \r\n        internal\r\n        returns (uint256,uint256)\r\n    {\r\n        require(totalMinerPower >= 100);\r\n        require(totalMinerPower.div(100).mul(100) == totalMinerPower);\r\n        uint256 packageAmount = _chance.mul(totalMinerPower).div(100);\r\n        uint256 amountPerPackage = _total.mul(1 ether).div(packageAmount);\r\n\r\n        return  (packageAmount,amountPerPackage);\r\n    }\r\n\r\n    /**\r\n     * @dev  issue blocks\r\n     * @return the address can take one type block's amount\r\n     */\r\n    function _issueBlocks(\r\n        uint256 _chance, \r\n        uint256 _total,\r\n        address _addr\r\n    )\r\n        view\r\n        internal\r\n        returns (uint256)\r\n    {\r\n        uint256  packageAmount;\r\n        uint256 amountPerPackage;\r\n        \r\n        (packageAmount, amountPerPackage) = _minerBlock(_chance, _total);\r\n\r\n        uint256[] memory packageId = new uint256[](packageAmount);\r\n        packageId = _miner(packageAmount, totalMinerPower);\r\n\r\n\r\n        return _getpackage(ownerToMiner[_addr].powerNum, packageId);    \r\n    }\r\n\r\n    /**\r\n     */\r\n}\r\n\r\ninterface leblock {\r\n    function mintToken(address _target, uint256 _mintedAmount) external;\r\n}\r\n",
  "sourcePath": "/home/flyq/workspace/LeBlock/LeBlock/contracts/Leblock_main.sol",
  "compiler": {
    "name": "solc",
    "version": "0.4.24+commit.e67f0147.Emscripten.clang"
  },
  "schemaVersion": "2.0.1",
  "updatedAt": "2018-08-06T09:17:23.272Z"
}