{
  "contractName": "leblock",
  "abi": [
    {
      "constant": true,
      "inputs": [],
      "name": "name",
      "outputs": [
        {
          "name": "",
          "type": "string"
        }
      ],
      "payable": false,
      "stateMutability": "view",
      "type": "function"
    },
    {
      "constant": false,
      "inputs": [
        {
          "name": "_admin",
          "type": "address"
        }
      ],
      "name": "removeAdmin",
      "outputs": [],
      "payable": false,
      "stateMutability": "nonpayable",
      "type": "function"
    },
    {
      "constant": true,
      "inputs": [],
      "name": "decimals",
      "outputs": [
        {
          "name": "",
          "type": "uint8"
        }
      ],
      "payable": false,
      "stateMutability": "view",
      "type": "function"
    },
    {
      "constant": false,
      "inputs": [],
      "name": "unpause",
      "outputs": [],
      "payable": false,
      "stateMutability": "nonpayable",
      "type": "function"
    },
    {
      "constant": true,
      "inputs": [
        {
          "name": "",
          "type": "address"
        }
      ],
      "name": "admins",
      "outputs": [
        {
          "name": "",
          "type": "bool"
        }
      ],
      "payable": false,
      "stateMutability": "view",
      "type": "function"
    },
    {
      "constant": true,
      "inputs": [],
      "name": "paused",
      "outputs": [
        {
          "name": "",
          "type": "bool"
        }
      ],
      "payable": false,
      "stateMutability": "view",
      "type": "function"
    },
    {
      "constant": false,
      "inputs": [
        {
          "name": "_admin",
          "type": "address"
        }
      ],
      "name": "addAdmin",
      "outputs": [],
      "payable": false,
      "stateMutability": "nonpayable",
      "type": "function"
    },
    {
      "constant": false,
      "inputs": [],
      "name": "acceptOwnership",
      "outputs": [],
      "payable": false,
      "stateMutability": "nonpayable",
      "type": "function"
    },
    {
      "constant": false,
      "inputs": [],
      "name": "pause",
      "outputs": [],
      "payable": false,
      "stateMutability": "nonpayable",
      "type": "function"
    },
    {
      "constant": true,
      "inputs": [],
      "name": "owner",
      "outputs": [
        {
          "name": "",
          "type": "address"
        }
      ],
      "payable": false,
      "stateMutability": "view",
      "type": "function"
    },
    {
      "constant": true,
      "inputs": [],
      "name": "symbol",
      "outputs": [
        {
          "name": "",
          "type": "string"
        }
      ],
      "payable": false,
      "stateMutability": "view",
      "type": "function"
    },
    {
      "constant": true,
      "inputs": [],
      "name": "newOwner",
      "outputs": [
        {
          "name": "",
          "type": "address"
        }
      ],
      "payable": false,
      "stateMutability": "view",
      "type": "function"
    },
    {
      "constant": false,
      "inputs": [
        {
          "name": "_newOwner",
          "type": "address"
        }
      ],
      "name": "transferOwnership",
      "outputs": [],
      "payable": false,
      "stateMutability": "nonpayable",
      "type": "function"
    },
    {
      "inputs": [
        {
          "name": "_symbol",
          "type": "string"
        },
        {
          "name": "_name",
          "type": "string"
        },
        {
          "name": "_totalSupply",
          "type": "uint256"
        }
      ],
      "payable": false,
      "stateMutability": "nonpayable",
      "type": "constructor"
    },
    {
      "payable": true,
      "stateMutability": "payable",
      "type": "fallback"
    },
    {
      "anonymous": false,
      "inputs": [],
      "name": "Pause",
      "type": "event"
    },
    {
      "anonymous": false,
      "inputs": [],
      "name": "Unpause",
      "type": "event"
    },
    {
      "anonymous": false,
      "inputs": [
        {
          "indexed": true,
          "name": "_from",
          "type": "address"
        },
        {
          "indexed": true,
          "name": "_to",
          "type": "address"
        }
      ],
      "name": "OwnershipTransferred",
      "type": "event"
    },
    {
      "anonymous": false,
      "inputs": [
        {
          "indexed": true,
          "name": "from",
          "type": "address"
        },
        {
          "indexed": true,
          "name": "to",
          "type": "address"
        },
        {
          "indexed": false,
          "name": "tokens",
          "type": "uint256"
        }
      ],
      "name": "Transfer",
      "type": "event"
    },
    {
      "anonymous": false,
      "inputs": [
        {
          "indexed": true,
          "name": "tokenOwner",
          "type": "address"
        },
        {
          "indexed": true,
          "name": "spender",
          "type": "address"
        },
        {
          "indexed": false,
          "name": "tokens",
          "type": "uint256"
        }
      ],
      "name": "Approval",
      "type": "event"
    },
    {
      "constant": true,
      "inputs": [],
      "name": "totalSupply",
      "outputs": [
        {
          "name": "",
          "type": "uint256"
        }
      ],
      "payable": false,
      "stateMutability": "view",
      "type": "function"
    },
    {
      "constant": true,
      "inputs": [
        {
          "name": "_tokenOwner",
          "type": "address"
        }
      ],
      "name": "balanceOf",
      "outputs": [
        {
          "name": "balance",
          "type": "uint256"
        }
      ],
      "payable": false,
      "stateMutability": "view",
      "type": "function"
    },
    {
      "constant": false,
      "inputs": [
        {
          "name": "_to",
          "type": "address"
        },
        {
          "name": "_tokens",
          "type": "uint256"
        }
      ],
      "name": "transfer",
      "outputs": [
        {
          "name": "success",
          "type": "bool"
        }
      ],
      "payable": false,
      "stateMutability": "nonpayable",
      "type": "function"
    },
    {
      "constant": false,
      "inputs": [
        {
          "name": "_spender",
          "type": "address"
        },
        {
          "name": "_tokens",
          "type": "uint256"
        }
      ],
      "name": "approve",
      "outputs": [
        {
          "name": "success",
          "type": "bool"
        }
      ],
      "payable": false,
      "stateMutability": "nonpayable",
      "type": "function"
    },
    {
      "constant": false,
      "inputs": [
        {
          "name": "_from",
          "type": "address"
        },
        {
          "name": "_to",
          "type": "address"
        },
        {
          "name": "_tokens",
          "type": "uint256"
        }
      ],
      "name": "transferFrom",
      "outputs": [
        {
          "name": "success",
          "type": "bool"
        }
      ],
      "payable": false,
      "stateMutability": "nonpayable",
      "type": "function"
    },
    {
      "constant": true,
      "inputs": [
        {
          "name": "_tokenOwner",
          "type": "address"
        },
        {
          "name": "_spender",
          "type": "address"
        }
      ],
      "name": "allowance",
      "outputs": [
        {
          "name": "remaining",
          "type": "uint256"
        }
      ],
      "payable": false,
      "stateMutability": "view",
      "type": "function"
    },
    {
      "constant": false,
      "inputs": [
        {
          "name": "_spender",
          "type": "address"
        },
        {
          "name": "_tokens",
          "type": "uint256"
        },
        {
          "name": "_data",
          "type": "bytes"
        }
      ],
      "name": "approveAndCall",
      "outputs": [
        {
          "name": "success",
          "type": "bool"
        }
      ],
      "payable": false,
      "stateMutability": "nonpayable",
      "type": "function"
    },
    {
      "constant": false,
      "inputs": [
        {
          "name": "_target",
          "type": "address"
        },
        {
          "name": "_mintedAmount",
          "type": "uint256"
        }
      ],
      "name": "mintToken",
      "outputs": [],
      "payable": false,
      "stateMutability": "nonpayable",
      "type": "function"
    },
    {
      "constant": false,
      "inputs": [
        {
          "name": "tokenAddress",
          "type": "address"
        },
        {
          "name": "tokens",
          "type": "uint256"
        }
      ],
      "name": "withDrawAnyERC20Token",
      "outputs": [
        {
          "name": "success",
          "type": "bool"
        }
      ],
      "payable": false,
      "stateMutability": "nonpayable",
      "type": "function"
    }
  ],
  "bytecode": "0x60806040526000600360006101000a81548160ff0219169083151502179055503480156200002c57600080fd5b5060405162001f6138038062001f61833981018060405281019080805182019291906020018051820192919060200180519060200190929190505050336000806101000a81548173ffffffffffffffffffffffffffffffffffffffff021916908373ffffffffffffffffffffffffffffffffffffffff1602179055506001600260003373ffffffffffffffffffffffffffffffffffffffff1673ffffffffffffffffffffffffffffffffffffffff16815260200190815260200160002060006101000a81548160ff02191690831515021790555082600490805190602001906200011892919062000244565b5081600590805190602001906200013192919062000244565b506012600660006101000a81548160ff021916908360ff160217905550600660009054906101000a900460ff1660ff16600a0a8102600781905550600754600860008060009054906101000a900473ffffffffffffffffffffffffffffffffffffffff1673ffffffffffffffffffffffffffffffffffffffff1673ffffffffffffffffffffffffffffffffffffffff168152602001908152602001600020819055503373ffffffffffffffffffffffffffffffffffffffff16600073ffffffffffffffffffffffffffffffffffffffff167fddf252ad1be2c89b69c2b068fc378daa952ba7f163c4a11628f55a4df523b3ef6007546040518082815260200191505060405180910390a3505050620002f3565b828054600181600116156101000203166002900490600052602060002090601f016020900481019282601f106200028757805160ff1916838001178555620002b8565b82800160010185558215620002b8579182015b82811115620002b75782518255916020019190600101906200029a565b5b509050620002c79190620002cb565b5090565b620002f091905b80821115620002ec576000816000905550600101620002d2565b5090565b90565b611c5e80620003036000396000f300608060405260043610610128576000357c0100000000000000000000000000000000000000000000000000000000900463ffffffff16806306fdde031461012d578063095ea7b3146101bd5780631785f53c1461022257806318160ddd1461026557806323b872dd14610290578063313ce567146103155780633f4ba83a14610346578063429b62e51461035d5780635c975abb146103b857806370480275146103e757806370a082311461042a57806379ba50971461048157806379c65068146104985780638456cb59146104e55780638da5cb5b146104fc57806394429fa61461055357806395d89b41146105b8578063a9059cbb14610648578063cae9ca51146106ad578063d4ee1d9014610758578063dd62ed3e146107af578063f2fde38b14610826575b600080fd5b34801561013957600080fd5b50610142610869565b6040518080602001828103825283818151815260200191508051906020019080838360005b83811015610182578082015181840152602081019050610167565b50505050905090810190601f1680156101af5780820380516001836020036101000a031916815260200191505b509250505060405180910390f35b3480156101c957600080fd5b50610208600480360381019080803573ffffffffffffffffffffffffffffffffffffffff16906020019092919080359060200190929190505050610907565b604051808215151515815260200191505060405180910390f35b34801561022e57600080fd5b50610263600480360381019080803573ffffffffffffffffffffffffffffffffffffffff169060200190929190505050610a15565b005b34801561027157600080fd5b5061027a610ac2565b6040518082815260200191505060405180910390f35b34801561029c57600080fd5b506102fb600480360381019080803573ffffffffffffffffffffffffffffffffffffffff169060200190929190803573ffffffffffffffffffffffffffffffffffffffff16906020019092919080359060200190929190505050610acc565b604051808215151515815260200191505060405180910390f35b34801561032157600080fd5b5061032a610d93565b604051808260ff1660ff16815260200191505060405180910390f35b34801561035257600080fd5b5061035b610da6565b005b34801561036957600080fd5b5061039e600480360381019080803573ffffffffffffffffffffffffffffffffffffffff169060200190929190505050610e62565b604051808215151515815260200191505060405180910390f35b3480156103c457600080fd5b506103cd610e82565b604051808215151515815260200191505060405180910390f35b3480156103f357600080fd5b50610428600480360381019080803573ffffffffffffffffffffffffffffffffffffffff169060200190929190505050610e95565b005b34801561043657600080fd5b5061046b600480360381019080803573ffffffffffffffffffffffffffffffffffffffff169060200190929190505050610f4b565b6040518082815260200191505060405180910390f35b34801561048d57600080fd5b50610496610f94565b005b3480156104a457600080fd5b506104e3600480360381019080803573ffffffffffffffffffffffffffffffffffffffff16906020019092919080359060200190929190505050611133565b005b3480156104f157600080fd5b506104fa61136e565b005b34801561050857600080fd5b5061051161142b565b604051808273ffffffffffffffffffffffffffffffffffffffff1673ffffffffffffffffffffffffffffffffffffffff16815260200191505060405180910390f35b34801561055f57600080fd5b5061059e600480360381019080803573ffffffffffffffffffffffffffffffffffffffff16906020019092919080359060200190929190505050611450565b604051808215151515815260200191505060405180910390f35b3480156105c457600080fd5b506105cd6115de565b6040518080602001828103825283818151815260200191508051906020019080838360005b8381101561060d5780820151818401526020810190506105f2565b50505050905090810190601f16801561063a5780820380516001836020036101000a031916815260200191505b509250505060405180910390f35b34801561065457600080fd5b50610693600480360381019080803573ffffffffffffffffffffffffffffffffffffffff1690602001909291908035906020019092919050505061167c565b604051808215151515815260200191505060405180910390f35b3480156106b957600080fd5b5061073e600480360381019080803573ffffffffffffffffffffffffffffffffffffffff16906020019092919080359060200190929190803590602001908201803590602001908080601f0160208091040260200160405190810160405280939291908181526020018383808284378201915050505050509192919290505050611833565b604051808215151515815260200191505060405180910390f35b34801561076457600080fd5b5061076d611a9e565b604051808273ffffffffffffffffffffffffffffffffffffffff1673ffffffffffffffffffffffffffffffffffffffff16815260200191505060405180910390f35b3480156107bb57600080fd5b50610810600480360381019080803573ffffffffffffffffffffffffffffffffffffffff169060200190929190803573ffffffffffffffffffffffffffffffffffffffff169060200190929190505050611ac4565b6040518082815260200191505060405180910390f35b34801561083257600080fd5b50610867600480360381019080803573ffffffffffffffffffffffffffffffffffffffff169060200190929190505050611b4b565b005b60058054600181600116156101000203166002900480601f0160208091040260200160405190810160405280929190818152602001828054600181600116156101000203166002900480156108ff5780601f106108d4576101008083540402835291602001916108ff565b820191906000526020600020905b8154815290600101906020018083116108e257829003601f168201915b505050505081565b6000600360009054906101000a900460ff1615151561092557600080fd5b81600960003373ffffffffffffffffffffffffffffffffffffffff1673ffffffffffffffffffffffffffffffffffffffff16815260200190815260200160002060008573ffffffffffffffffffffffffffffffffffffffff1673ffffffffffffffffffffffffffffffffffffffff168152602001908152602001600020819055508273ffffffffffffffffffffffffffffffffffffffff163373ffffffffffffffffffffffffffffffffffffffff167f8c5be1e5ebec7d5bd14f71427d1e84f3dd0314c0f7b2291e5b200ac8c7c3b925846040518082815260200191505060405180910390a36001905092915050565b6000809054906101000a900473ffffffffffffffffffffffffffffffffffffffff1673ffffffffffffffffffffffffffffffffffffffff163373ffffffffffffffffffffffffffffffffffffffff16141515610a7057600080fd5b600260008273ffffffffffffffffffffffffffffffffffffffff1673ffffffffffffffffffffffffffffffffffffffff16815260200190815260200160002060006101000a81549060ff021916905550565b6000600754905090565b6000600360009054906101000a900460ff16151515610aea57600080fd5b610b3c82600860008773ffffffffffffffffffffffffffffffffffffffff1673ffffffffffffffffffffffffffffffffffffffff16815260200190815260200160002054611bea90919063ffffffff16565b600860008673ffffffffffffffffffffffffffffffffffffffff1673ffffffffffffffffffffffffffffffffffffffff16815260200190815260200160002081905550610c0e82600960008773ffffffffffffffffffffffffffffffffffffffff1673ffffffffffffffffffffffffffffffffffffffff16815260200190815260200160002060003373ffffffffffffffffffffffffffffffffffffffff1673ffffffffffffffffffffffffffffffffffffffff16815260200190815260200160002054611bea90919063ffffffff16565b600960008673ffffffffffffffffffffffffffffffffffffffff1673ffffffffffffffffffffffffffffffffffffffff16815260200190815260200160002060003373ffffffffffffffffffffffffffffffffffffffff1673ffffffffffffffffffffffffffffffffffffffff16815260200190815260200160002081905550610ce082600860008673ffffffffffffffffffffffffffffffffffffffff1673ffffffffffffffffffffffffffffffffffffffff16815260200190815260200160002054611c0390919063ffffffff16565b600860008573ffffffffffffffffffffffffffffffffffffffff1673ffffffffffffffffffffffffffffffffffffffff168152602001908152602001600020819055508273ffffffffffffffffffffffffffffffffffffffff168473ffffffffffffffffffffffffffffffffffffffff167fddf252ad1be2c89b69c2b068fc378daa952ba7f163c4a11628f55a4df523b3ef846040518082815260200191505060405180910390a3600190509392505050565b600660009054906101000a900460ff1681565b600260003373ffffffffffffffffffffffffffffffffffffffff1673ffffffffffffffffffffffffffffffffffffffff16815260200190815260200160002060009054906101000a900460ff161515610dfe57600080fd5b600360009054906101000a900460ff161515610e1957600080fd5b6000600360006101000a81548160ff0219169083151502179055507f7805862f689e2f13df9f062ff482ad3ad112aca9e0847911ed832e158c525b3360405160405180910390a1565b60026020528060005260406000206000915054906101000a900460ff1681565b600360009054906101000a900460ff1681565b6000809054906101000a900473ffffffffffffffffffffffffffffffffffffffff1673ffffffffffffffffffffffffffffffffffffffff163373ffffffffffffffffffffffffffffffffffffffff16141515610ef057600080fd5b6001600260008373ffffffffffffffffffffffffffffffffffffffff1673ffffffffffffffffffffffffffffffffffffffff16815260200190815260200160002060006101000a81548160ff02191690831515021790555050565b6000600860008373ffffffffffffffffffffffffffffffffffffffff1673ffffffffffffffffffffffffffffffffffffffff168152602001908152602001600020549050919050565b600160009054906101000a900473ffffffffffffffffffffffffffffffffffffffff1673ffffffffffffffffffffffffffffffffffffffff163373ffffffffffffffffffffffffffffffffffffffff16141515610ff057600080fd5b600160009054906101000a900473ffffffffffffffffffffffffffffffffffffffff1673ffffffffffffffffffffffffffffffffffffffff166000809054906101000a900473ffffffffffffffffffffffffffffffffffffffff1673ffffffffffffffffffffffffffffffffffffffff167f8be0079c531659141344cd1fd0a4f28419497f9722a3daafe3b4186f6b6457e060405160405180910390a3600160009054906101000a900473ffffffffffffffffffffffffffffffffffffffff166000806101000a81548173ffffffffffffffffffffffffffffffffffffffff021916908373ffffffffffffffffffffffffffffffffffffffff1602179055506000600160006101000a81548173ffffffffffffffffffffffffffffffffffffffff021916908373ffffffffffffffffffffffffffffffffffffffff160217905550565b600260003373ffffffffffffffffffffffffffffffffffffffff1673ffffffffffffffffffffffffffffffffffffffff16815260200190815260200160002060009054906101000a900460ff16151561118b57600080fd5b600360009054906101000a900460ff161515156111a757600080fd5b6aadb53acfa41aee12000000600754111515156111c357600080fd5b61121581600860008573ffffffffffffffffffffffffffffffffffffffff1673ffffffffffffffffffffffffffffffffffffffff16815260200190815260200160002054611c0390919063ffffffff16565b600860008473ffffffffffffffffffffffffffffffffffffffff1673ffffffffffffffffffffffffffffffffffffffff1681526020019081526020016000208190555061126d81600754611c0390919063ffffffff16565b6007819055506000809054906101000a900473ffffffffffffffffffffffffffffffffffffffff1673ffffffffffffffffffffffffffffffffffffffff1660007fddf252ad1be2c89b69c2b068fc378daa952ba7f163c4a11628f55a4df523b3ef836040518082815260200191505060405180910390a38173ffffffffffffffffffffffffffffffffffffffff166000809054906101000a900473ffffffffffffffffffffffffffffffffffffffff1673ffffffffffffffffffffffffffffffffffffffff167fddf252ad1be2c89b69c2b068fc378daa952ba7f163c4a11628f55a4df523b3ef836040518082815260200191505060405180910390a35050565b600260003373ffffffffffffffffffffffffffffffffffffffff1673ffffffffffffffffffffffffffffffffffffffff16815260200190815260200160002060009054906101000a900460ff1615156113c657600080fd5b600360009054906101000a900460ff161515156113e257600080fd5b6001600360006101000a81548160ff0219169083151502179055507f6985a02210a168e66602d3235cb6db0e70f92b3ba4d376a33c0f3d9434bff62560405160405180910390a1565b6000809054906101000a900473ffffffffffffffffffffffffffffffffffffffff1681565b60008060009054906101000a900473ffffffffffffffffffffffffffffffffffffffff1673ffffffffffffffffffffffffffffffffffffffff163373ffffffffffffffffffffffffffffffffffffffff161415156114ad57600080fd5b6114cc8373ffffffffffffffffffffffffffffffffffffffff16611c1f565b15156114d757600080fd5b8273ffffffffffffffffffffffffffffffffffffffff1663a9059cbb6000809054906101000a900473ffffffffffffffffffffffffffffffffffffffff16846040518363ffffffff167c0100000000000000000000000000000000000000000000000000000000028152600401808373ffffffffffffffffffffffffffffffffffffffff1673ffffffffffffffffffffffffffffffffffffffff16815260200182815260200192505050602060405180830381600087803b15801561159b57600080fd5b505af11580156115af573d6000803e3d6000fd5b505050506040513d60208110156115c557600080fd5b8101908080519060200190929190505050905092915050565b60048054600181600116156101000203166002900480601f0160208091040260200160405190810160405280929190818152602001828054600181600116156101000203166002900480156116745780601f1061164957610100808354040283529160200191611674565b820191906000526020600020905b81548152906001019060200180831161165757829003601f168201915b505050505081565b6000600360009054906101000a900460ff1615151561169a57600080fd5b6116ec82600860003373ffffffffffffffffffffffffffffffffffffffff1673ffffffffffffffffffffffffffffffffffffffff16815260200190815260200160002054611bea90919063ffffffff16565b600860003373ffffffffffffffffffffffffffffffffffffffff1673ffffffffffffffffffffffffffffffffffffffff1681526020019081526020016000208190555061178182600860008673ffffffffffffffffffffffffffffffffffffffff1673ffffffffffffffffffffffffffffffffffffffff16815260200190815260200160002054611c0390919063ffffffff16565b600860008573ffffffffffffffffffffffffffffffffffffffff1673ffffffffffffffffffffffffffffffffffffffff168152602001908152602001600020819055508273ffffffffffffffffffffffffffffffffffffffff163373ffffffffffffffffffffffffffffffffffffffff167fddf252ad1be2c89b69c2b068fc378daa952ba7f163c4a11628f55a4df523b3ef846040518082815260200191505060405180910390a36001905092915050565b6000600360009054906101000a900460ff1615151561185157600080fd5b82600960003373ffffffffffffffffffffffffffffffffffffffff1673ffffffffffffffffffffffffffffffffffffffff16815260200190815260200160002060008673ffffffffffffffffffffffffffffffffffffffff1673ffffffffffffffffffffffffffffffffffffffff168152602001908152602001600020819055508373ffffffffffffffffffffffffffffffffffffffff163373ffffffffffffffffffffffffffffffffffffffff167f8c5be1e5ebec7d5bd14f71427d1e84f3dd0314c0f7b2291e5b200ac8c7c3b925856040518082815260200191505060405180910390a38373ffffffffffffffffffffffffffffffffffffffff16638f4ffcb1338530866040518563ffffffff167c0100000000000000000000000000000000000000000000000000000000028152600401808573ffffffffffffffffffffffffffffffffffffffff1673ffffffffffffffffffffffffffffffffffffffff1681526020018481526020018373ffffffffffffffffffffffffffffffffffffffff1673ffffffffffffffffffffffffffffffffffffffff16815260200180602001828103825283818151815260200191508051906020019080838360005b83811015611a2c578082015181840152602081019050611a11565b50505050905090810190601f168015611a595780820380516001836020036101000a031916815260200191505b5095505050505050600060405180830381600087803b158015611a7b57600080fd5b505af1158015611a8f573d6000803e3d6000fd5b50505050600190509392505050565b600160009054906101000a900473ffffffffffffffffffffffffffffffffffffffff1681565b6000600960008473ffffffffffffffffffffffffffffffffffffffff1673ffffffffffffffffffffffffffffffffffffffff16815260200190815260200160002060008373ffffffffffffffffffffffffffffffffffffffff1673ffffffffffffffffffffffffffffffffffffffff16815260200190815260200160002054905092915050565b6000809054906101000a900473ffffffffffffffffffffffffffffffffffffffff1673ffffffffffffffffffffffffffffffffffffffff163373ffffffffffffffffffffffffffffffffffffffff16141515611ba657600080fd5b80600160006101000a81548173ffffffffffffffffffffffffffffffffffffffff021916908373ffffffffffffffffffffffffffffffffffffffff16021790555050565b6000828211151515611bf857fe5b818303905092915050565b60008183019050828110151515611c1657fe5b80905092915050565b600080823b9050600081119150509190505600a165627a7a72305820387566f1e9a40d876027ce1d93abaead9a3d6903262c40f9ac0764ef157adf2e0029",
  "source": "pragma solidity ^0.4.24;\r\n\r\n/**\r\n * @title SafeMath\r\n * @dev Math operations with safety checks that throw on error\r\n */\r\nlibrary SafeMath {\r\n\r\n\t/**\r\n\t* @dev Multiplies two numbers, throws on overflow.\r\n\t*/\r\n\tfunction mul(uint256 a, uint256 b) internal pure returns (uint256 c) {\r\n\t\tif (a == 0) {\r\n\t\treturn 0;\r\n\t\t}\r\n\t\tc = a * b;\r\n\t\tassert(c / a == b);\r\n\t\treturn c;\r\n\t}\r\n\r\n\t/**\r\n\t* @dev Integer division of two numbers, truncating the quotient.\r\n\t*/\r\n\tfunction div(uint256 a, uint256 b) internal pure returns (uint256) {\r\n\t\t// assert(b > 0); // Solidity automatically throws when dividing by 0\r\n\t\t// uint256 c = a / b;\r\n\t\t// assert(a == b * c + a % b); // There is no case in which this doesn't hold\r\n\t\treturn a / b;\r\n\t}\r\n\r\n\t/**\r\n\t* @dev Subtracts two numbers, throws on overflow (i.e. if subtrahend is greater than minuend).\r\n\t*/\r\n\tfunction sub(uint256 a, uint256 b) internal pure returns (uint256) {\r\n\t\tassert(b <= a);\r\n\t\treturn a - b;\r\n  }\r\n\r\n  /**\r\n  * @dev Adds two numbers, throws on overflow.\r\n  */\r\n  function add(uint256 a, uint256 b) internal pure returns (uint256 c) {\r\n    c = a + b;\r\n    assert(c >= a);\r\n    return c;\r\n  }\r\n}\r\n\r\n/**\r\n * Utility library of inline functions on addresses\r\n */\r\nlibrary AddressUtils {\r\n\r\n    /**\r\n     * Returns whether the target address is a contract\r\n     * @dev This function will return false if invoked during the constructor of a contract,\r\n     * as the code is not actually created until after the constructor finishes.\r\n     * @param addr address to check\r\n     * @return whether the target address is a contract\r\n     */\r\n    function isContract(address addr) internal view returns (bool) {\r\n        uint256 size;\r\n        // XXX Currently there is no better way to check if there is a contract in an address\r\n        // than to check the size of the code at that address.\r\n        // See https://ethereum.stackexchange.com/a/14016/36603\r\n        // for more details about how this works.\r\n        // TODO Check this again before the Serenity release, because all addresses will be\r\n        // contracts then.\r\n        // solium-disable-next-line security/no-inline-assembly\r\n        assembly { size := extcodesize(addr) }\r\n        return size > 0;\r\n    }\r\n\r\n}\r\n\r\n/**\r\n * @title ERC20Interface\r\n * @dev https: *github.com/ethereum/EIPs/blob/master/EIPS/eip-20.md\r\n */\r\n contract ERC20Interface {\r\n    function totalSupply() public view returns (uint256);\r\n    function balanceOf(address tokenOwner) public view returns (uint256 balance);\r\n    function allowance(address tokenOwner, address spender) public view returns (uint256 remaining);\r\n    function transfer(address to, uint256 tokens) public returns (bool success);\r\n    function approve(address spender, uint256 tokens) public returns (bool success);\r\n    function transferFrom(address from, address to, uint256 tokens) public returns (bool success);\r\n\r\n    event Transfer(address indexed from, address indexed to, uint256 tokens);\r\n    event Approval(address indexed tokenOwner, address indexed spender, uint256 tokens);\r\n}\r\n\r\n\r\n/**\r\n * @dev Contract function to receive approval and execute function in one call\r\n */\r\ncontract ApproveAndCallFallBack {\r\n    function receiveApproval(address from, uint256 tokens, address token, bytes data) public;\r\n}\r\n\r\n\r\n/**\r\n * @title Owned\r\n */\r\n contract Owned {\r\n    address public owner;\r\n    address public newOwner;\r\n    mapping (address => bool) public admins;\r\n\r\n    event OwnershipTransferred(address indexed _from, address indexed _to);\r\n\r\n    modifier onlyOwner {\r\n        require(msg.sender == owner);\r\n        _;\r\n    }\r\n\r\n    modifier onlyAdmins {\r\n        require(admins[msg.sender]);\r\n        _;\r\n    }\r\n\r\n    function transferOwnership(address _newOwner) public onlyOwner {\r\n        newOwner = _newOwner;\r\n    }\r\n    function acceptOwnership() public {\r\n        require(msg.sender == newOwner);\r\n        emit OwnershipTransferred(owner, newOwner);\r\n        owner = newOwner;\r\n        newOwner = address(0);\r\n    }\r\n\r\n    function addAdmin(address _admin) onlyOwner public {\r\n        admins[_admin] = true;\r\n    }\r\n\r\n    function removeAdmin(address _admin) onlyOwner public {\r\n        delete admins[_admin];\r\n    }\r\n\r\n}\r\n\r\n\r\n/**\r\n * @title Pausable\r\n * @dev Base contract which allows children to implement an emergency stop mechanism.\r\n */\r\ncontract Pausable is Owned {\r\n\tevent Pause();\r\n\tevent Unpause();\r\n\r\n\tbool public paused = false;\r\n\r\n\r\n\t/**\r\n\t* @dev Modifier to make a function callable only when the contract is not paused.\r\n\t*/\r\n\tmodifier whenNotPaused() {\r\n\t\trequire(!paused);\r\n\t\t_;\r\n\t}\r\n\r\n\t/**\r\n\t* @dev Modifier to make a function callable only when the contract is paused.\r\n\t*/\r\n\tmodifier whenPaused() {\r\n\t\trequire(paused);\r\n\t\t_;\r\n\t}\r\n\r\n\t/**\r\n\t* @dev called by the owner to pause, triggers stopped state\r\n\t*/\r\n\tfunction pause() onlyAdmins whenNotPaused public {\r\n\t\tpaused = true;\r\n\t\temit Pause();\r\n\t}\r\n\r\n\t/**\r\n\t* @dev called by the owner to unpause, returns to normal state\r\n\t*/\r\n\tfunction unpause() onlyAdmins whenPaused public {\r\n\t\tpaused = false;\r\n\t\temit Unpause();\r\n\t}\r\n}\r\n\r\n/**\r\n * @title \r\n * @dev ERC20 Token, with the addition of symbol, name and decimals and an initial supply\r\n */\r\ncontract leblock is ERC20Interface, Pausable {\r\n\tusing SafeMath for uint256;\r\n\tusing AddressUtils for address;\r\n\r\n    string public symbol;\r\n    string public  name;\r\n    uint8 public decimals;\r\n    uint256 public totalSupply;\r\n\r\n    mapping(address => uint256) balances;\r\n    mapping(address => mapping(address => uint256)) allowed;\r\n\r\n\t/**\r\n\t * @dev 1 eth this token = price other token which in address,\r\n\t * @notice the decimals of price\r\n\t */\r\n\tmapping(address => uint256) price;\r\n\r\n    /**\r\n     * @dev Constructor\r\n     */ \r\n    constructor(string _symbol, string _name, uint256 _totalSupply) public {\r\n        owner = msg.sender;\r\n        admins[msg.sender] = true;\r\n\r\n        symbol = _symbol;\r\n        name = _name;\r\n        decimals = 18;\r\n        totalSupply = _totalSupply * 10**uint(decimals);\r\n        balances[owner] = totalSupply;        \r\n        emit Transfer(address(0), msg.sender, totalSupply);\r\n    }\r\n\r\n    function totalSupply() public view returns (uint256) {\r\n        return totalSupply;\r\n    }\r\n\r\n    function balanceOf(address _tokenOwner) public view returns (uint256 balance) {\r\n        return balances[_tokenOwner];\r\n    }\r\n\r\n    /**\r\n     * Transfer the balance from token owner's account to `to` account\r\n     * - Owner's account must have sufficient balance to transfer\r\n     * - 0 value transfers are allowed\r\n     */ \r\n    function transfer(address _to, uint256 _tokens) public whenNotPaused returns (bool success) {\r\n        balances[msg.sender] = balances[msg.sender].sub(_tokens);\r\n        balances[_to] = balances[_to].add(_tokens);\r\n        emit Transfer(msg.sender, _to, _tokens);\r\n        return true;\r\n    }\r\n\r\n    /** \r\n     * Token owner can approve for `spender` to transferFrom(...) `tokens`\r\n     * from the token owner's account\r\n     *\r\n     * https://github.com/ethereum/EIPs/blob/master/EIPS/eip-20-token-standard.md\r\n     * recommends that there are no checks for the approval double-spend attack\r\n     * as this should be implemented in user interfaces \r\n     */\r\n    function approve(address _spender, uint256 _tokens) public whenNotPaused returns (bool success) {\r\n        allowed[msg.sender][_spender] = _tokens;\r\n        emit Approval(msg.sender, _spender, _tokens);\r\n        return true;\r\n    }\r\n\r\n    /**\r\n     * Transfer `tokens` from the `from` account to the `to` account\r\n     * \r\n     * The calling account must already have sufficient tokens approve(...)-d\r\n     * for spending from the `from` account and\r\n     * - From account must have sufficient balance to transfer\r\n     * - Spender must have sufficient allowance to transfer\r\n     * - 0 value transfers are allowed\r\n     */\r\n    function transferFrom(address _from, address _to, uint256 _tokens) public whenNotPaused returns (bool success) {\r\n        balances[_from] = balances[_from].sub(_tokens);\r\n        allowed[_from][msg.sender] = allowed[_from][msg.sender].sub(_tokens);\r\n        balances[_to] = balances[_to].add(_tokens);\r\n        emit Transfer(_from, _to, _tokens);\r\n        return true;\r\n    }\r\n\r\n    /**\r\n     * Returns the amount of tokens approved by the owner that can be\r\n     * transferred to the spender's account\r\n     */\r\n    function allowance(address _tokenOwner, address _spender) public view returns (uint256 remaining) {\r\n        return allowed[_tokenOwner][_spender];\r\n    }\r\n\r\n    /** \r\n     * Token owner can approve for `spender` to transferFrom(...) `tokens`\r\n     * from the token owner's account. The `spender` contract function\r\n     * `receiveApproval(...)` is then executed\r\n     */\r\n    function approveAndCall(address _spender, uint256 _tokens, bytes _data) public whenNotPaused returns (bool success) {\r\n        allowed[msg.sender][_spender] = _tokens;\r\n        emit Approval(msg.sender, _spender, _tokens);\r\n        ApproveAndCallFallBack(_spender).receiveApproval(msg.sender, _tokens, this, _data);\r\n        return true;\r\n    }\r\n\r\n    function mintToken(address _target, uint256 _mintedAmount) onlyAdmins whenNotPaused public {\r\n        require(totalSupply <= 21 * 10**25);\r\n        balances[_target] = balances[_target].add(_mintedAmount);\r\n        totalSupply = totalSupply.add(_mintedAmount);\r\n        emit Transfer(0, owner, _mintedAmount);\r\n        emit Transfer(owner, _target, _mintedAmount);\r\n    }\r\n\r\n    /*\r\n     * Don't accept ETH\r\n     **/\r\n    function () public payable {\r\n        revert();\r\n    }\r\n\r\n    /** \r\n     * @dev Owner can transfer out any accidentally sent ERC20 tokens\r\n     */\r\n    function withDrawAnyERC20Token(address tokenAddress, uint256 tokens) public onlyOwner returns (bool success) {\r\n        require(tokenAddress.isContract());\r\n\t\treturn ERC20Interface(tokenAddress).transfer(owner, tokens);\r\n    }\r\n}",
  "sourcePath": "/home/flyq/workspace/LeBlock/LeBlock/contracts/leblock.sol",
  "compiler": {
    "name": "solc",
    "version": "0.4.24+commit.e67f0147.Emscripten.clang"
  },
  "schemaVersion": "2.0.1",
  "updatedAt": "2018-07-25T06:29:53.683Z"
}